{
  "contractName": "DEX_MainContract",
  "abi": [
    {
      "constant": true,
      "inputs": [
        {
          "name": "",
          "type": "uint256"
        }
      ],
      "name": "currentBuyOffersTradeHash",
      "outputs": [
        {
          "name": "",
          "type": "bytes32"
        }
      ],
      "payable": false,
      "stateMutability": "view",
      "type": "function"
    },
    {
      "constant": true,
      "inputs": [
        {
          "name": "",
          "type": "bytes32"
        }
      ],
      "name": "escrowAddressWithRespectToTradeHash",
      "outputs": [
        {
          "name": "",
          "type": "address"
        }
      ],
      "payable": false,
      "stateMutability": "view",
      "type": "function"
    },
    {
      "constant": true,
      "inputs": [],
      "name": "owner",
      "outputs": [
        {
          "name": "",
          "type": "address"
        }
      ],
      "payable": false,
      "stateMutability": "view",
      "type": "function"
    },
    {
      "constant": true,
      "inputs": [
        {
          "name": "",
          "type": "bytes32"
        }
      ],
      "name": "sellOffers",
      "outputs": [
        {
          "name": "fiatCurrency",
          "type": "string"
        },
        {
          "components": [
            {
              "name": "accountNumber",
              "type": "string"
            },
            {
              "name": "bankName",
              "type": "string"
            }
          ],
          "name": "sellerFiatAccount",
          "type": "tuple"
        },
        {
          "name": "offeredEthQuantity",
          "type": "uint256"
        },
        {
          "name": "fiatQuantity",
          "type": "uint256"
        },
        {
          "name": "sellerAddress",
          "type": "address"
        },
        {
          "name": "buyerAddress",
          "type": "address"
        },
        {
          "name": "arbitratorAddress",
          "type": "address"
        },
        {
          "name": "arbitratorFee",
          "type": "uint256"
        }
      ],
      "payable": false,
      "stateMutability": "view",
      "type": "function"
    },
    {
      "constant": true,
      "inputs": [
        {
          "name": "",
          "type": "bytes32"
        }
      ],
      "name": "buyOffers",
      "outputs": [
        {
          "name": "fiatCurrency",
          "type": "string"
        },
        {
          "components": [
            {
              "name": "accountNumber",
              "type": "string"
            },
            {
              "name": "bankName",
              "type": "string"
            }
          ],
          "name": "sellerFiatAccount",
          "type": "tuple"
        },
        {
          "name": "offeredEthQuantity",
          "type": "uint256"
        },
        {
          "name": "fiatQuantity",
          "type": "uint256"
        },
        {
          "name": "sellerAddress",
          "type": "address"
        },
        {
          "name": "buyerAddress",
          "type": "address"
        },
        {
          "name": "arbitratorAddress",
          "type": "address"
        },
        {
          "name": "arbitratorFee",
          "type": "uint256"
        }
      ],
      "payable": false,
      "stateMutability": "view",
      "type": "function"
    },
    {
      "constant": true,
      "inputs": [
        {
          "name": "",
          "type": "uint256"
        }
      ],
      "name": "escrowContracts",
      "outputs": [
        {
          "name": "",
          "type": "address"
        }
      ],
      "payable": false,
      "stateMutability": "view",
      "type": "function"
    },
    {
      "constant": true,
      "inputs": [
        {
          "name": "",
          "type": "uint256"
        }
      ],
      "name": "currentSellOffersTradeHash",
      "outputs": [
        {
          "name": "",
          "type": "bytes32"
        }
      ],
      "payable": false,
      "stateMutability": "view",
      "type": "function"
    },
    {
      "constant": true,
      "inputs": [
        {
          "name": "",
          "type": "uint256"
        }
      ],
      "name": "freeEscrowContracts",
      "outputs": [
        {
          "name": "",
          "type": "address"
        }
      ],
      "payable": false,
      "stateMutability": "view",
      "type": "function"
    },
    {
      "inputs": [],
      "payable": false,
      "stateMutability": "nonpayable",
      "type": "constructor"
    },
    {
      "anonymous": false,
      "inputs": [
        {
          "indexed": true,
          "name": "caller",
          "type": "address"
        },
        {
          "indexed": true,
          "name": "tradeHash",
          "type": "bytes32"
        }
      ],
      "name": "SellOfferPlaced",
      "type": "event"
    },
    {
      "anonymous": false,
      "inputs": [
        {
          "indexed": true,
          "name": "caller",
          "type": "address"
        },
        {
          "indexed": true,
          "name": "tradeHash",
          "type": "bytes32"
        }
      ],
      "name": "BuyOfferPlaced",
      "type": "event"
    },
    {
      "anonymous": false,
      "inputs": [
        {
          "indexed": true,
          "name": "caller",
          "type": "address"
        },
        {
          "indexed": true,
          "name": "tradeHash",
          "type": "bytes32"
        }
      ],
      "name": "SellOfferCanceled",
      "type": "event"
    },
    {
      "anonymous": false,
      "inputs": [
        {
          "indexed": true,
          "name": "caller",
          "type": "address"
        },
        {
          "indexed": true,
          "name": "tradeHash",
          "type": "bytes32"
        }
      ],
      "name": "BuyOfferCanceled",
      "type": "event"
    },
    {
      "anonymous": false,
      "inputs": [
        {
          "indexed": true,
          "name": "sellerAddress",
          "type": "address"
        },
        {
          "indexed": true,
          "name": "buyerAddress",
          "type": "address"
        },
        {
          "indexed": false,
          "name": "addressOfNewEscrow",
          "type": "address"
        },
        {
          "indexed": true,
          "name": "tradeHash",
          "type": "bytes32"
        }
      ],
      "name": "EscrowContractCreatedForTrade",
      "type": "event"
    },
    {
      "anonymous": false,
      "inputs": [
        {
          "indexed": true,
          "name": "tradeHash",
          "type": "bytes32"
        }
      ],
      "name": "CompleteOffer",
      "type": "event"
    },
    {
      "anonymous": false,
      "inputs": [
        {
          "indexed": true,
          "name": "tradeHash",
          "type": "bytes32"
        }
      ],
      "name": "CompleteOfferFailed",
      "type": "event"
    },
    {
      "constant": false,
      "inputs": [
        {
          "name": "_fiatCurrency",
          "type": "string"
        },
        {
          "name": "_sellerBankaccountNumber",
          "type": "string"
        },
        {
          "name": "_sellerBankName",
          "type": "string"
        },
        {
          "name": "_offeredEthQuantity",
          "type": "uint256"
        },
        {
          "name": "_fiatQuantity",
          "type": "uint256"
        },
        {
          "name": "_arbitratorAddress",
          "type": "address"
        }
      ],
      "name": "placeSellOffer",
      "outputs": [],
      "payable": false,
      "stateMutability": "nonpayable",
      "type": "function"
    },
    {
      "constant": false,
      "inputs": [
        {
          "name": "_fiatCurrency",
          "type": "string"
        },
        {
          "name": "_offeredEthQuantity",
          "type": "uint256"
        },
        {
          "name": "_fiatQuantity",
          "type": "uint256"
        },
        {
          "name": "_arbitratorAddress",
          "type": "address"
        }
      ],
      "name": "placeBuyOffer",
      "outputs": [],
      "payable": false,
      "stateMutability": "nonpayable",
      "type": "function"
    },
    {
      "constant": true,
      "inputs": [
        {
          "name": "_tradeHash",
          "type": "bytes32"
        }
      ],
      "name": "getSellOfferFromTradeHash",
      "outputs": [
        {
          "name": "",
          "type": "string"
        },
        {
          "name": "",
          "type": "uint256"
        },
        {
          "name": "",
          "type": "uint256"
        },
        {
          "name": "",
          "type": "address"
        },
        {
          "name": "",
          "type": "address"
        },
        {
          "name": "",
          "type": "address"
        }
      ],
      "payable": false,
      "stateMutability": "view",
      "type": "function"
    },
    {
      "constant": true,
      "inputs": [
        {
          "name": "_tradeHash",
          "type": "bytes32"
        }
      ],
      "name": "getSellOfferDetailsFromTradeHash",
      "outputs": [
        {
          "name": "",
          "type": "uint256"
        },
        {
          "name": "",
          "type": "string"
        },
        {
          "name": "",
          "type": "string"
        }
      ],
      "payable": false,
      "stateMutability": "view",
      "type": "function"
    },
    {
      "constant": true,
      "inputs": [
        {
          "name": "_tradeHash",
          "type": "bytes32"
        }
      ],
      "name": "getBuyOfferFromTradeHash",
      "outputs": [
        {
          "name": "",
          "type": "string"
        },
        {
          "name": "",
          "type": "uint256"
        },
        {
          "name": "",
          "type": "uint256"
        },
        {
          "name": "",
          "type": "address"
        },
        {
          "name": "",
          "type": "address"
        },
        {
          "name": "",
          "type": "address"
        }
      ],
      "payable": false,
      "stateMutability": "view",
      "type": "function"
    },
    {
      "constant": true,
      "inputs": [
        {
          "name": "_tradeHash",
          "type": "bytes32"
        }
      ],
      "name": "getBuyOfferDetailsFromTradeHash",
      "outputs": [
        {
          "name": "",
          "type": "uint256"
        },
        {
          "name": "",
          "type": "string"
        },
        {
          "name": "",
          "type": "string"
        }
      ],
      "payable": false,
      "stateMutability": "view",
      "type": "function"
    },
    {
      "constant": true,
      "inputs": [],
      "name": "getCurrentSellOffersCount",
      "outputs": [
        {
          "name": "",
          "type": "uint256"
        }
      ],
      "payable": false,
      "stateMutability": "view",
      "type": "function"
    },
    {
      "constant": true,
      "inputs": [],
      "name": "getCurrentBuyOffersCount",
      "outputs": [
        {
          "name": "",
          "type": "uint256"
        }
      ],
      "payable": false,
      "stateMutability": "view",
      "type": "function"
    },
    {
      "constant": false,
      "inputs": [
        {
          "name": "_tradeHash",
          "type": "bytes32"
        }
      ],
      "name": "cancelSellOffer",
      "outputs": [],
      "payable": false,
      "stateMutability": "nonpayable",
      "type": "function"
    },
    {
      "constant": false,
      "inputs": [
        {
          "name": "_tradeHash",
          "type": "bytes32"
        }
      ],
      "name": "cancelBuyOffer",
      "outputs": [],
      "payable": false,
      "stateMutability": "nonpayable",
      "type": "function"
    },
    {
      "constant": false,
      "inputs": [
        {
          "name": "_tradeHash",
          "type": "bytes32"
        }
      ],
      "name": "takeSellOffer",
      "outputs": [],
      "payable": false,
      "stateMutability": "nonpayable",
      "type": "function"
    },
    {
      "constant": false,
      "inputs": [
        {
          "name": "_tradeHash",
          "type": "bytes32"
        },
        {
          "name": "_sellerBankaccountNumber",
          "type": "string"
        },
        {
          "name": "_sellerBankName",
          "type": "string"
        }
      ],
      "name": "takeBuyOffer",
      "outputs": [],
      "payable": false,
      "stateMutability": "nonpayable",
      "type": "function"
    },
    {
      "constant": false,
      "inputs": [
        {
          "name": "_tradeHash",
          "type": "bytes32"
        }
      ],
      "name": "completeOffer",
      "outputs": [],
      "payable": false,
      "stateMutability": "nonpayable",
      "type": "function"
    }
  ],
  "bytecode": "0x608060405234801561001057600080fd5b50336000806101000a81548173ffffffffffffffffffffffffffffffffffffffff021916908373ffffffffffffffffffffffffffffffffffffffff1602179055506157a1806100606000396000f30060806040526004361061011d576000357c0100000000000000000000000000000000000000000000000000000000900463ffffffff1680630344183b1461012257806309312252146101835780631b80629f146101b45780631e4f5362146102d1578063307334ff14610422578063388f72601461045357806381432f1a1461049c578063859d9486146104c75780638b36d9b3146105385780638da5cb5b146106555780639d975b5c146106ac578063af0fd5fe146107fd578063b160bfbf1461095c578063b72c263814610abb578063d0e2dfba14610aec578063d388f24114610b59578063d43eeec714610b8a578063dcea58fa14610bf9578063ddd6fdd114610c42578063de6c464b14610c6d578063fdde9ea814610cda575b600080fd5b34801561012e57600080fd5b506101816004803603810190808035600019169060200190929190803590602001908201803590602001919091929391929390803590602001908201803590602001919091929391929390505050610d79565b005b34801561018f57600080fd5b506101b26004803603810190808035600019169060200190929190505050611019565b005b3480156101c057600080fd5b506101e36004803603810190808035600019169060200190929190505050611253565b604051808481526020018060200180602001838103835285818151815260200191508051906020019080838360005b8381101561022d578082015181840152602081019050610212565b50505050905090810190601f16801561025a5780820380516001836020036101000a031916815260200191505b50838103825284818151815260200191508051906020019080838360005b83811015610293578082015181840152602081019050610278565b50505050905090810190601f1680156102c05780820380516001836020036101000a031916815260200191505b509550505050505060405180910390f35b3480156102dd57600080fd5b5061030060048036038101908080356000191690602001909291905050506113fe565b60405180806020018781526020018681526020018573ffffffffffffffffffffffffffffffffffffffff1673ffffffffffffffffffffffffffffffffffffffff1681526020018473ffffffffffffffffffffffffffffffffffffffff1673ffffffffffffffffffffffffffffffffffffffff1681526020018373ffffffffffffffffffffffffffffffffffffffff1673ffffffffffffffffffffffffffffffffffffffff168152602001828103825288818151815260200191508051906020019080838360005b838110156103e25780820151818401526020810190506103c7565b50505050905090810190601f16801561040f5780820380516001836020036101000a031916815260200191505b5097505050505050505060405180910390f35b34801561042e57600080fd5b5061045160048036038101908080356000191690602001909291905050506115d2565b005b34801561045f57600080fd5b5061047e600480360381019080803590602001909291905050506117f9565b60405180826000191660001916815260200191505060405180910390f35b3480156104a857600080fd5b506104b161181c565b6040518082815260200191505060405180910390f35b3480156104d357600080fd5b506104f66004803603810190808035600019169060200190929190505050611829565b604051808273ffffffffffffffffffffffffffffffffffffffff1673ffffffffffffffffffffffffffffffffffffffff16815260200191505060405180910390f35b34801561054457600080fd5b50610567600480360381019080803560001916906020019092919050505061185c565b604051808481526020018060200180602001838103835285818151815260200191508051906020019080838360005b838110156105b1578082015181840152602081019050610596565b50505050905090810190601f1680156105de5780820380516001836020036101000a031916815260200191505b50838103825284818151815260200191508051906020019080838360005b838110156106175780820151818401526020810190506105fc565b50505050905090810190601f1680156106445780820380516001836020036101000a031916815260200191505b509550505050505060405180910390f35b34801561066157600080fd5b5061066a611a07565b604051808273ffffffffffffffffffffffffffffffffffffffff1673ffffffffffffffffffffffffffffffffffffffff16815260200191505060405180910390f35b3480156106b857600080fd5b506106db6004803603810190808035600019169060200190929190505050611a2c565b60405180806020018781526020018681526020018573ffffffffffffffffffffffffffffffffffffffff1673ffffffffffffffffffffffffffffffffffffffff1681526020018473ffffffffffffffffffffffffffffffffffffffff1673ffffffffffffffffffffffffffffffffffffffff1681526020018373ffffffffffffffffffffffffffffffffffffffff1673ffffffffffffffffffffffffffffffffffffffff168152602001828103825288818151815260200191508051906020019080838360005b838110156107bd5780820151818401526020810190506107a2565b50505050905090810190601f1680156107ea5780820380516001836020036101000a031916815260200191505b5097505050505050505060405180910390f35b34801561080957600080fd5b5061082c6004803603810190808035600019169060200190929190505050611c00565b60405180806020018981526020018881526020018781526020018673ffffffffffffffffffffffffffffffffffffffff1673ffffffffffffffffffffffffffffffffffffffff1681526020018573ffffffffffffffffffffffffffffffffffffffff1673ffffffffffffffffffffffffffffffffffffffff1681526020018473ffffffffffffffffffffffffffffffffffffffff1673ffffffffffffffffffffffffffffffffffffffff16815260200183815260200182810382528a818151815260200191508051906020019080838360005b8381101561091a5780820151818401526020810190506108ff565b50505050905090810190601f1680156109475780820380516001836020036101000a031916815260200191505b50995050505050505050505060405180910390f35b34801561096857600080fd5b5061098b6004803603810190808035600019169060200190929190505050611e8e565b60405180806020018981526020018881526020018781526020018673ffffffffffffffffffffffffffffffffffffffff1673ffffffffffffffffffffffffffffffffffffffff1681526020018573ffffffffffffffffffffffffffffffffffffffff1673ffffffffffffffffffffffffffffffffffffffff1681526020018473ffffffffffffffffffffffffffffffffffffffff1673ffffffffffffffffffffffffffffffffffffffff16815260200183815260200182810382528a818151815260200191508051906020019080838360005b83811015610a79578082015181840152602081019050610a5e565b50505050905090810190601f168015610aa65780820380516001836020036101000a031916815260200191505b50995050505050505050505060405180910390f35b348015610ac757600080fd5b50610aea600480360381019080803560001916906020019092919050505061211c565b005b348015610af857600080fd5b50610b17600480360381019080803590602001909291905050506126af565b604051808273ffffffffffffffffffffffffffffffffffffffff1673ffffffffffffffffffffffffffffffffffffffff16815260200191505060405180910390f35b348015610b6557600080fd5b50610b8860048036038101908080356000191690602001909291905050506126ed565b005b348015610b9657600080fd5b50610bf76004803603810190808035906020019082018035906020019190919293919293908035906020019092919080359060200190929190803573ffffffffffffffffffffffffffffffffffffffff169060200190929190505050612914565b005b348015610c0557600080fd5b50610c2460048036038101908080359060200190929190505050612ba6565b60405180826000191660001916815260200191505060405180910390f35b348015610c4e57600080fd5b50610c57612bc9565b6040518082815260200191505060405180910390f35b348015610c7957600080fd5b50610c9860048036038101908080359060200190929190505050612bd6565b604051808273ffffffffffffffffffffffffffffffffffffffff1673ffffffffffffffffffffffffffffffffffffffff16815260200191505060405180910390f35b348015610ce657600080fd5b50610d776004803603810190808035906020019082018035906020019190919293919293908035906020019082018035906020019190919293919293908035906020019082018035906020019190919293919293908035906020019092919080359060200190929190803573ffffffffffffffffffffffffffffffffffffffff169060200190929190505050612c14565b005b600073ffffffffffffffffffffffffffffffffffffffff1660026000876000191660001916815260200190815260200160002060060160009054906101000a900473ffffffffffffffffffffffffffffffffffffffff1673ffffffffffffffffffffffffffffffffffffffff1614151515610df357600080fd5b600073ffffffffffffffffffffffffffffffffffffffff1660026000876000191660001916815260200190815260200160002060050160009054906101000a900473ffffffffffffffffffffffffffffffffffffffff1673ffffffffffffffffffffffffffffffffffffffff16141515610e6c57600080fd5b3360026000876000191660001916815260200190815260200160002060050160006101000a81548173ffffffffffffffffffffffffffffffffffffffff021916908373ffffffffffffffffffffffffffffffffffffffff16021790555083836002600088600019166000191681526020019081526020016000206001016000019190610ef9929190613405565b5081816002600088600019166000191681526020019081526020016000206001016001019190610f2a929190613405565b506110128560026000886000191660001916815260200190815260200160002060050160009054906101000a900473ffffffffffffffffffffffffffffffffffffffff1660026000896000191660001916815260200190815260200160002060060160009054906101000a900473ffffffffffffffffffffffffffffffffffffffff16600260008a6000191660001916815260200190815260200160002060070160009054906101000a900473ffffffffffffffffffffffffffffffffffffffff166000600260008c6000191660001916815260200190815260200160002060030154612ed8565b5050505050565b600073ffffffffffffffffffffffffffffffffffffffff1660016000836000191660001916815260200190815260200160002060050160009054906101000a900473ffffffffffffffffffffffffffffffffffffffff1673ffffffffffffffffffffffffffffffffffffffff161415151561109357600080fd5b600073ffffffffffffffffffffffffffffffffffffffff1660016000836000191660001916815260200190815260200160002060060160009054906101000a900473ffffffffffffffffffffffffffffffffffffffff1673ffffffffffffffffffffffffffffffffffffffff1614151561110c57600080fd5b3360016000836000191660001916815260200190815260200160002060060160006101000a81548173ffffffffffffffffffffffffffffffffffffffff021916908373ffffffffffffffffffffffffffffffffffffffff1602179055506112508160016000846000191660001916815260200190815260200160002060050160009054906101000a900473ffffffffffffffffffffffffffffffffffffffff1660016000856000191660001916815260200190815260200160002060060160009054906101000a900473ffffffffffffffffffffffffffffffffffffffff1660016000866000191660001916815260200190815260200160002060070160009054906101000a900473ffffffffffffffffffffffffffffffffffffffff16600060016000886000191660001916815260200190815260200160002060030154612ed8565b50565b600060608060016000856000191660001916815260200190815260200160002060080154600160008660001916600019168152602001908152602001600020600101600001600160008760001916600019168152602001908152602001600020600101600101818054600181600116156101000203166002900480601f01602080910402602001604051908101604052809291908181526020018280546001816001161561010002031660029004801561134e5780601f106113235761010080835404028352916020019161134e565b820191906000526020600020905b81548152906001019060200180831161133157829003601f168201915b50505050509150808054600181600116156101000203166002900480601f0160208091040260200160405190810160405280929190818152602001828054600181600116156101000203166002900480156113ea5780601f106113bf576101008083540402835291602001916113ea565b820191906000526020600020905b8154815290600101906020018083116113cd57829003601f168201915b505050505090509250925092509193909250565b6060600080600080600060026000886000191660001916815260200190815260200160002060000160026000896000191660001916815260200190815260200160002060030154600260008a6000191660001916815260200190815260200160002060040154600260008b6000191660001916815260200190815260200160002060050160009054906101000a900473ffffffffffffffffffffffffffffffffffffffff16600260008c6000191660001916815260200190815260200160002060060160009054906101000a900473ffffffffffffffffffffffffffffffffffffffff16600260008d6000191660001916815260200190815260200160002060070160009054906101000a900473ffffffffffffffffffffffffffffffffffffffff16858054600181600116156101000203166002900480601f0160208091040260200160405190810160405280929190818152602001828054600181600116156101000203166002900480156115b65780601f1061158b576101008083540402835291602001916115b6565b820191906000526020600020905b81548152906001019060200180831161159957829003601f168201915b5050505050955095509550955095509550955091939550919395565b3373ffffffffffffffffffffffffffffffffffffffff1660016000836000191660001916815260200190815260200160002060050160009054906101000a900473ffffffffffffffffffffffffffffffffffffffff1673ffffffffffffffffffffffffffffffffffffffff1614151561164a57600080fd5b600073ffffffffffffffffffffffffffffffffffffffff1660016000836000191660001916815260200190815260200160002060060160009054906101000a900473ffffffffffffffffffffffffffffffffffffffff1673ffffffffffffffffffffffffffffffffffffffff161415156116c357600080fd5b600160008260001916600019168152602001908152602001600020600080820160006116ef9190613485565b60018201600080820160006117049190613485565b6001820160006117149190613485565b5050600382016000905560048201600090556005820160006101000a81549073ffffffffffffffffffffffffffffffffffffffff02191690556006820160006101000a81549073ffffffffffffffffffffffffffffffffffffffff02191690556007820160006101000a81549073ffffffffffffffffffffffffffffffffffffffff0219169055600882016000905550506117ae816132cd565b80600019163373ffffffffffffffffffffffffffffffffffffffff167f0a66bb83c3e50a5af5629fc6346c0d1d6498843f5ab0d3a4efc5418569539d1c60405160405180910390a350565b60048181548110151561180857fe5b906000526020600020016000915090505481565b6000600380549050905090565b60086020528060005260406000206000915054906101000a900473ffffffffffffffffffffffffffffffffffffffff1681565b600060608060026000856000191660001916815260200190815260200160002060080154600260008660001916600019168152602001908152602001600020600101600001600260008760001916600019168152602001908152602001600020600101600101818054600181600116156101000203166002900480601f0160208091040260200160405190810160405280929190818152602001828054600181600116156101000203166002900480156119575780601f1061192c57610100808354040283529160200191611957565b820191906000526020600020905b81548152906001019060200180831161193a57829003601f168201915b50505050509150808054600181600116156101000203166002900480601f0160208091040260200160405190810160405280929190818152602001828054600181600116156101000203166002900480156119f35780601f106119c8576101008083540402835291602001916119f3565b820191906000526020600020905b8154815290600101906020018083116119d657829003601f168201915b505050505090509250925092509193909250565b6000809054906101000a900473ffffffffffffffffffffffffffffffffffffffff1681565b6060600080600080600060016000886000191660001916815260200190815260200160002060000160016000896000191660001916815260200190815260200160002060030154600160008a6000191660001916815260200190815260200160002060040154600160008b6000191660001916815260200190815260200160002060050160009054906101000a900473ffffffffffffffffffffffffffffffffffffffff16600160008c6000191660001916815260200190815260200160002060060160009054906101000a900473ffffffffffffffffffffffffffffffffffffffff16600160008d6000191660001916815260200190815260200160002060070160009054906101000a900473ffffffffffffffffffffffffffffffffffffffff16858054600181600116156101000203166002900480601f016020809104026020016040519081016040528092919081815260200182805460018160011615610100020316600290048015611be45780601f10611bb957610100808354040283529160200191611be4565b820191906000526020600020905b815481529060010190602001808311611bc757829003601f168201915b5050505050955095509550955095509550955091939550919395565b6001602052806000526040600020600091509050806000018054600181600116156101000203166002900480601f016020809104026020016040519081016040528092919081815260200182805460018160011615610100020316600290048015611cac5780601f10611c8157610100808354040283529160200191611cac565b820191906000526020600020905b815481529060010190602001808311611c8f57829003601f168201915b50505050509080600101604080519081016040529081600082018054600181600116156101000203166002900480601f016020809104026020016040519081016040528092919081815260200182805460018160011615610100020316600290048015611d5a5780601f10611d2f57610100808354040283529160200191611d5a565b820191906000526020600020905b815481529060010190602001808311611d3d57829003601f168201915b50505050508152602001600182018054600181600116156101000203166002900480601f016020809104026020016040519081016040528092919081815260200182805460018160011615610100020316600290048015611dfc5780601f10611dd157610100808354040283529160200191611dfc565b820191906000526020600020905b815481529060010190602001808311611ddf57829003601f168201915b505050505081525050908060030154908060040154908060050160009054906101000a900473ffffffffffffffffffffffffffffffffffffffff16908060060160009054906101000a900473ffffffffffffffffffffffffffffffffffffffff16908060070160009054906101000a900473ffffffffffffffffffffffffffffffffffffffff16908060080154905088565b6002602052806000526040600020600091509050806000018054600181600116156101000203166002900480601f016020809104026020016040519081016040528092919081815260200182805460018160011615610100020316600290048015611f3a5780601f10611f0f57610100808354040283529160200191611f3a565b820191906000526020600020905b815481529060010190602001808311611f1d57829003601f168201915b50505050509080600101604080519081016040529081600082018054600181600116156101000203166002900480601f016020809104026020016040519081016040528092919081815260200182805460018160011615610100020316600290048015611fe85780601f10611fbd57610100808354040283529160200191611fe8565b820191906000526020600020905b815481529060010190602001808311611fcb57829003601f168201915b50505050508152602001600182018054600181600116156101000203166002900480601f01602080910402602001604051908101604052809291908181526020018280546001816001161561010002031660029004801561208a5780601f1061205f5761010080835404028352916020019161208a565b820191906000526020600020905b81548152906001019060200180831161206d57829003601f168201915b505050505081525050908060030154908060040154908060050160009054906101000a900473ffffffffffffffffffffffffffffffffffffffff16908060060160009054906101000a900473ffffffffffffffffffffffffffffffffffffffff16908060070160009054906101000a900473ffffffffffffffffffffffffffffffffffffffff16908060080154905088565b3373ffffffffffffffffffffffffffffffffffffffff1660086000836000191660001916815260200190815260200160002060009054906101000a900473ffffffffffffffffffffffffffffffffffffffff1673ffffffffffffffffffffffffffffffffffffffff1614151561219157600080fd5b600073ffffffffffffffffffffffffffffffffffffffff1660026000836000191660001916815260200190815260200160002060060160009054906101000a900473ffffffffffffffffffffffffffffffffffffffff1673ffffffffffffffffffffffffffffffffffffffff1614151561240557600260008260001916600019168152602001908152602001600020600080820160006122319190613485565b60018201600080820160006122469190613485565b6001820160006122569190613485565b5050600382016000905560048201600090556005820160006101000a81549073ffffffffffffffffffffffffffffffffffffffff02191690556006820160006101000a81549073ffffffffffffffffffffffffffffffffffffffff02191690556007820160006101000a81549073ffffffffffffffffffffffffffffffffffffffff0219169055600882016000905550506122f081613369565b600660086000836000191660001916815260200190815260200160002060009054906101000a900473ffffffffffffffffffffffffffffffffffffffff1690806001815401808255809150509060018203906000526020600020016000909192909190916101000a81548173ffffffffffffffffffffffffffffffffffffffff021916908373ffffffffffffffffffffffffffffffffffffffff1602179055505060086000826000191660001916815260200190815260200160002060006101000a81549073ffffffffffffffffffffffffffffffffffffffff021916905580600019167fdbeda7d8c079d608307e1f5ef0e704c3fd9be2277731c0d15f294af9e3168d3c60405160405180910390a26126ac565b600073ffffffffffffffffffffffffffffffffffffffff1660016000836000191660001916815260200190815260200160002060050160009054906101000a900473ffffffffffffffffffffffffffffffffffffffff1673ffffffffffffffffffffffffffffffffffffffff1614151561267957600160008260001916600019168152602001908152602001600020600080820160006124a59190613485565b60018201600080820160006124ba9190613485565b6001820160006124ca9190613485565b5050600382016000905560048201600090556005820160006101000a81549073ffffffffffffffffffffffffffffffffffffffff02191690556006820160006101000a81549073ffffffffffffffffffffffffffffffffffffffff02191690556007820160006101000a81549073ffffffffffffffffffffffffffffffffffffffff021916905560088201600090555050612564816132cd565b600660086000836000191660001916815260200190815260200160002060009054906101000a900473ffffffffffffffffffffffffffffffffffffffff1690806001815401808255809150509060018203906000526020600020016000909192909190916101000a81548173ffffffffffffffffffffffffffffffffffffffff021916908373ffffffffffffffffffffffffffffffffffffffff1602179055505060086000826000191660001916815260200190815260200160002060006101000a81549073ffffffffffffffffffffffffffffffffffffffff021916905580600019167fdbeda7d8c079d608307e1f5ef0e704c3fd9be2277731c0d15f294af9e3168d3c60405160405180910390a26126ab565b80600019167f206c9f8f876f0a4702ba583dbeff43c30443190e944f1792d048de9381eda9c360405160405180910390a25b5b50565b6005818154811015156126be57fe5b906000526020600020016000915054906101000a900473ffffffffffffffffffffffffffffffffffffffff1681565b3373ffffffffffffffffffffffffffffffffffffffff1660026000836000191660001916815260200190815260200160002060060160009054906101000a900473ffffffffffffffffffffffffffffffffffffffff1673ffffffffffffffffffffffffffffffffffffffff1614151561276557600080fd5b600073ffffffffffffffffffffffffffffffffffffffff1660026000836000191660001916815260200190815260200160002060050160009054906101000a900473ffffffffffffffffffffffffffffffffffffffff1673ffffffffffffffffffffffffffffffffffffffff161415156127de57600080fd5b6002600082600019166000191681526020019081526020016000206000808201600061280a9190613485565b600182016000808201600061281f9190613485565b60018201600061282f9190613485565b5050600382016000905560048201600090556005820160006101000a81549073ffffffffffffffffffffffffffffffffffffffff02191690556006820160006101000a81549073ffffffffffffffffffffffffffffffffffffffff02191690556007820160006101000a81549073ffffffffffffffffffffffffffffffffffffffff0219169055600882016000905550506128c981613369565b80600019163373ffffffffffffffffffffffffffffffffffffffff167f7dd92e04e84ec8690894d19bc4a1336b823c46f04677eb70df22ace2f6366a9d60405160405180910390a350565b600080334286868a8a604051808773ffffffffffffffffffffffffffffffffffffffff1673ffffffffffffffffffffffffffffffffffffffff166c010000000000000000000000000281526014018681526020018581526020018481526020018383808284378201915050807f4275790000000000000000000000000000000000000000000000000000000000815250600301965050505050505060405180910390209150600073ffffffffffffffffffffffffffffffffffffffff1660026000846000191660001916815260200190815260200160002060060160009054906101000a900473ffffffffffffffffffffffffffffffffffffffff1673ffffffffffffffffffffffffffffffffffffffff16141515612a3257600080fd5b60026000836000191660001916815260200190815260200160002090508686826000019190612a62929190613405565b50848160030181905550838160040181905550338160060160006101000a81548173ffffffffffffffffffffffffffffffffffffffff021916908373ffffffffffffffffffffffffffffffffffffffff160217905550828160070160006101000a81548173ffffffffffffffffffffffffffffffffffffffff021916908373ffffffffffffffffffffffffffffffffffffffff16021790555060048290806001815401808255809150509060018203906000526020600020016000909192909190915090600019169055506001600480549050036007600084600019166000191681526020019081526020016000208190555081600019163373ffffffffffffffffffffffffffffffffffffffff167fa512480abb414d72857c2ef50eacf1464fb059957bbef46f4f91133915d8525760405160405180910390a350505050505050565b600381815481101515612bb557fe5b906000526020600020016000915090505481565b6000600480549050905090565b600681815481101515612be557fe5b906000526020600020016000915054906101000a900473ffffffffffffffffffffffffffffffffffffffff1681565b600080334286868e8e604051808773ffffffffffffffffffffffffffffffffffffffff1673ffffffffffffffffffffffffffffffffffffffff166c010000000000000000000000000281526014018681526020018581526020018481526020018383808284378201915050807f53656c6c00000000000000000000000000000000000000000000000000000000815250600401965050505050505060405180910390209150600073ffffffffffffffffffffffffffffffffffffffff1660016000846000191660001916815260200190815260200160002060050160009054906101000a900473ffffffffffffffffffffffffffffffffffffffff1673ffffffffffffffffffffffffffffffffffffffff16141515612d3257600080fd5b60016000836000191660001916815260200190815260200160002090508a8a826000019190612d62929190613405565b508888826001016000019190612d79929190613405565b508686826001016001019190612d90929190613405565b50848160030181905550838160040181905550338160050160006101000a81548173ffffffffffffffffffffffffffffffffffffffff021916908373ffffffffffffffffffffffffffffffffffffffff160217905550828160070160006101000a81548173ffffffffffffffffffffffffffffffffffffffff021916908373ffffffffffffffffffffffffffffffffffffffff16021790555060038290806001815401808255809150509060018203906000526020600020016000909192909190915090600019169055506001600380549050036007600084600019166000191681526020019081526020016000208190555081600019163373ffffffffffffffffffffffffffffffffffffffff167fd47d6d751b946b3361b9386c626ec4f5f1f67a4bf55fdc04b6d0eeb185e9d2de60405160405180910390a35050505050505050505050565b60008060006006805490501115613086576006600160068054905003815481101515612f0057fe5b9060005260206000200160009054906101000a900473ffffffffffffffffffffffffffffffffffffffff1691508190508073ffffffffffffffffffffffffffffffffffffffff1663b21495308989898989896040518763ffffffff167c01000000000000000000000000000000000000000000000000000000000281526004018087600019166000191681526020018673ffffffffffffffffffffffffffffffffffffffff1673ffffffffffffffffffffffffffffffffffffffff1681526020018573ffffffffffffffffffffffffffffffffffffffff1673ffffffffffffffffffffffffffffffffffffffff1681526020018473ffffffffffffffffffffffffffffffffffffffff1673ffffffffffffffffffffffffffffffffffffffff1681526020018381526020018281526020019650505050505050600060405180830381600087803b15801561305357600080fd5b505af1158015613067573d6000803e3d6000fd5b50505050600680548091906001900361308091906134cd565b506131d3565b8787878787876130946134f9565b8087600019166000191681526020018673ffffffffffffffffffffffffffffffffffffffff1673ffffffffffffffffffffffffffffffffffffffff1681526020018573ffffffffffffffffffffffffffffffffffffffff1673ffffffffffffffffffffffffffffffffffffffff1681526020018473ffffffffffffffffffffffffffffffffffffffff1673ffffffffffffffffffffffffffffffffffffffff1681526020018381526020018281526020019650505050505050604051809103906000f080158015613169573d6000803e3d6000fd5b50915060058290806001815401808255809150509060018203906000526020600020016000909192909190916101000a81548173ffffffffffffffffffffffffffffffffffffffff021916908373ffffffffffffffffffffffffffffffffffffffff160217905550505b81600860008a6000191660001916815260200190815260200160002060006101000a81548173ffffffffffffffffffffffffffffffffffffffff021916908373ffffffffffffffffffffffffffffffffffffffff16021790555087600019168673ffffffffffffffffffffffffffffffffffffffff168873ffffffffffffffffffffffffffffffffffffffff167f5a704a4083985e3ad54f89dcc483866d1b6a81f9a98fb4b66c2402908ad1588a85604051808273ffffffffffffffffffffffffffffffffffffffff1673ffffffffffffffffffffffffffffffffffffffff16815260200191505060405180910390a45050505050505050565b600060036001600380549050038154811015156132e657fe5b906000526020600020015490508060036007600085600019166000191681526020019081526020016000205481548110151561331e57fe5b9060005260206000200181600019169055506007600083600019166000191681526020019081526020016000206000905560038054809190600190036133649190613509565b505050565b6000600460016004805490500381548110151561338257fe5b90600052602060002001549050806004600760008560001916600019168152602001908152602001600020548154811015156133ba57fe5b9060005260206000200181600019169055506007600083600019166000191681526020019081526020016000206000905560048054809190600190036134009190613509565b505050565b828054600181600116156101000203166002900490600052602060002090601f016020900481019282601f1061344657803560ff1916838001178555613474565b82800160010185558215613474579182015b82811115613473578235825591602001919060010190613458565b5b5090506134819190613535565b5090565b50805460018160011615610100020316600290046000825580601f106134ab57506134ca565b601f0160209004906000526020600020908101906134c99190613535565b5b50565b8154818355818111156134f4578183600052602060002091820191016134f39190613535565b5b505050565b6040516121f68061358083390190565b8154818355818111156135305781836000526020600020918201910161352f919061355a565b5b505050565b61355791905b8082111561355357600081600090555060010161353b565b5090565b90565b61357c91905b80821115613578576000816000905550600101613560565b5090565b905600608060405234801561001057600080fd5b5060405160c0806121f6833981018060405281019080805190602001909291908051906020019092919080519060200190929190805190602001909291908051906020019092919080519060200190929190505050336000806101000a81548173ffffffffffffffffffffffffffffffffffffffff021916908373ffffffffffffffffffffffffffffffffffffffff16021790555084600160006101000a81548173ffffffffffffffffffffffffffffffffffffffff021916908373ffffffffffffffffffffffffffffffffffffffff16021790555083600260006101000a81548173ffffffffffffffffffffffffffffffffffffffff021916908373ffffffffffffffffffffffffffffffffffffffff16021790555082600360006101000a81548173ffffffffffffffffffffffffffffffffffffffff021916908373ffffffffffffffffffffffffffffffffffffffff16021790555081600481905550806005819055508560098160001916905550505050505050612060806101966000396000f3006080604052600436106101ac576000357c0100000000000000000000000000000000000000000000000000000000900463ffffffff1680630844514b146101b15780630e8d5440146101c857806313576cab146101f35780633d9b2ae61461021e57806344834aca146102755780634afdc43c146102cc5780634db9afec146102e35780634eeffdc8146103165780635b4ecc311461034357806369a2ec4f146103725780636b668ee11461037c5780637295046714610393578063880cdc31146103c05780638da5cb5b146104035780638edff6981461045a578063957b6cb314610489578063983bf58714610493578063a6b829c7146104c2578063b2149530146104f1578063b4079caa14610596578063b5cff366146105ad578063b96cb80e146105d8578063bffc243d14610603578063ce18a04914610646578063d077f95214610650578063d60257be14610667578063d8797db0146106be578063d8df31d0146106c8578063da051c92146106df578063dbbdae63146106f6578063dc7d7d4414610739578063ed72dccc14610768578063f58d513d14610797578063f9df94f5146107c6575b600080fd5b3480156101bd57600080fd5b506101c6610809565b005b3480156101d457600080fd5b506101dd6108fd565b6040518082815260200191505060405180910390f35b3480156101ff57600080fd5b50610208610903565b6040518082815260200191505060405180910390f35b34801561022a57600080fd5b50610233610909565b604051808273ffffffffffffffffffffffffffffffffffffffff1673ffffffffffffffffffffffffffffffffffffffff16815260200191505060405180910390f35b34801561028157600080fd5b5061028a61092f565b604051808273ffffffffffffffffffffffffffffffffffffffff1673ffffffffffffffffffffffffffffffffffffffff16815260200191505060405180910390f35b3480156102d857600080fd5b506102e1610955565b005b3480156102ef57600080fd5b506102f8610a35565b60405180826000191660001916815260200191505060405180910390f35b34801561032257600080fd5b5061034160048036038101908080359060200190929190505050610a3b565b005b34801561034f57600080fd5b50610358610b78565b604051808215151515815260200191505060405180910390f35b61037a610b8b565b005b34801561038857600080fd5b50610391610d5b565b005b34801561039f57600080fd5b506103be60048036038101908080359060200190929190505050610e4d565b005b3480156103cc57600080fd5b50610401600480360381019080803573ffffffffffffffffffffffffffffffffffffffff169060200190929190505050610f29565b005b34801561040f57600080fd5b5061041861107e565b604051808273ffffffffffffffffffffffffffffffffffffffff1673ffffffffffffffffffffffffffffffffffffffff16815260200191505060405180910390f35b34801561046657600080fd5b5061046f6110a3565b604051808215151515815260200191505060405180910390f35b6104916110b5565b005b34801561049f57600080fd5b506104a86111b8565b604051808215151515815260200191505060405180910390f35b3480156104ce57600080fd5b506104d76111cb565b604051808215151515815260200191505060405180910390f35b3480156104fd57600080fd5b506105946004803603810190808035600019169060200190929190803573ffffffffffffffffffffffffffffffffffffffff169060200190929190803573ffffffffffffffffffffffffffffffffffffffff169060200190929190803573ffffffffffffffffffffffffffffffffffffffff16906020019092919080359060200190929190803590602001909291905050506111de565b005b3480156105a257600080fd5b506105ab61136b565b005b3480156105b957600080fd5b506105c261144a565b6040518082815260200191505060405180910390f35b3480156105e457600080fd5b506105ed611450565b6040518082815260200191505060405180910390f35b34801561060f57600080fd5b50610644600480360381019080803573ffffffffffffffffffffffffffffffffffffffff169060200190929190505050611456565b005b61064e6115cf565b005b34801561065c57600080fd5b506106656116d2565b005b34801561067357600080fd5b5061067c6117b2565b604051808273ffffffffffffffffffffffffffffffffffffffff1673ffffffffffffffffffffffffffffffffffffffff16815260200191505060405180910390f35b6106c66117d8565b005b3480156106d457600080fd5b506106dd6119a8565b005b3480156106eb57600080fd5b506106f4611a9c565b005b34801561070257600080fd5b50610737600480360381019080803573ffffffffffffffffffffffffffffffffffffffff169060200190929190505050611b8e565b005b34801561074557600080fd5b5061074e611cf6565b604051808215151515815260200191505060405180910390f35b34801561077457600080fd5b5061077d611d09565b604051808215151515815260200191505060405180910390f35b3480156107a357600080fd5b506107ac611d1c565b604051808215151515815260200191505060405180910390f35b3480156107d257600080fd5b50610807600480360381019080803573ffffffffffffffffffffffffffffffffffffffff169060200190929190505050611d2f565b005b600360009054906101000a900473ffffffffffffffffffffffffffffffffffffffff1673ffffffffffffffffffffffffffffffffffffffff163373ffffffffffffffffffffffffffffffffffffffff1614151561086557600080fd5b60006005541415151561087757600080fd5b6005546008541115151561088a57600080fd5b6005546007541115151561089d57600080fd5b6001600660036101000a81548160ff0219169083151502179055503373ffffffffffffffffffffffffffffffffffffffff167f0434567802dc4dfe4da4b28e840367553938999824811f11e12cfd492904e01060405160405180910390a2565b60075481565b60085481565b600160009054906101000a900473ffffffffffffffffffffffffffffffffffffffff1681565b600260009054906101000a900473ffffffffffffffffffffffffffffffffffffffff1681565b600160009054906101000a900473ffffffffffffffffffffffffffffffffffffffff1673ffffffffffffffffffffffffffffffffffffffff163373ffffffffffffffffffffffffffffffffffffffff161415156109b157600080fd5b6000600554141515156109c357600080fd5b6005546007541415156109d557600080fd5b6001600660046101000a81548160ff0219169083151502179055503373ffffffffffffffffffffffffffffffffffffffff167f2fbe376eb76a27a1b4a114620b10e43818b8bc87a47bd9bc825f7513fa7c77bd60405160405180910390a2565b60095481565b600360009054906101000a900473ffffffffffffffffffffffffffffffffffffffff1673ffffffffffffffffffffffffffffffffffffffff163373ffffffffffffffffffffffffffffffffffffffff161480610ae357506000809054906101000a900473ffffffffffffffffffffffffffffffffffffffff1673ffffffffffffffffffffffffffffffffffffffff163373ffffffffffffffffffffffffffffffffffffffff16145b1515610aee57600080fd5b60008114151515610afe57600080fd5b6000600854141515610b0f57600080fd5b6000600754141515610b2057600080fd5b806005819055503373ffffffffffffffffffffffffffffffffffffffff167f82a0d7f616308cccabf2144eb1cae4632e05f7337f943d21db7c77307b591380826040518082815260200191505060405180910390a250565b600660049054906101000a900460ff1681565b6000600660029054906101000a900460ff1680610bb45750600660019054906101000a900460ff165b1515610bbf57600080fd5b600060075414158015610bd55750600060085414155b1515610be057600080fd5b600554600854141515610bf257600080fd5b60045460075460085401039050600360009054906101000a900473ffffffffffffffffffffffffffffffffffffffff1673ffffffffffffffffffffffffffffffffffffffff166108fc6004549081150290604051600060405180830381858888f19350505050158015610c69573d6000803e3d6000fd5b50600260009054906101000a900473ffffffffffffffffffffffffffffffffffffffff1673ffffffffffffffffffffffffffffffffffffffff166108fc829081150290604051600060405180830381858888f19350505050158015610cd2573d6000803e3d6000fd5b50610cdb611e97565b80600260009054906101000a900473ffffffffffffffffffffffffffffffffffffffff1673ffffffffffffffffffffffffffffffffffffffff163373ffffffffffffffffffffffffffffffffffffffff167f03ef89100a0f08669251a1228deb678c3f58c16f2467552145e7861556e7792260405160405180910390a450565b600260009054906101000a900473ffffffffffffffffffffffffffffffffffffffff1673ffffffffffffffffffffffffffffffffffffffff163373ffffffffffffffffffffffffffffffffffffffff16141515610db757600080fd5b600060055414151515610dc957600080fd5b600554600854141515610ddb57600080fd5b600554600754141515610ded57600080fd5b6001600660006101000a81548160ff0219169083151502179055503373ffffffffffffffffffffffffffffffffffffffff167f2f12d1f875dff07cdcd667f9c30a2ca40566eefeb4a6ebacbe22f55df7c6ff8a60405160405180910390a2565b600360009054906101000a900473ffffffffffffffffffffffffffffffffffffffff1673ffffffffffffffffffffffffffffffffffffffff163373ffffffffffffffffffffffffffffffffffffffff16141515610ea957600080fd5b60008114151515610eb957600080fd5b6000600854141515610eca57600080fd5b6000600754141515610edb57600080fd5b80600481905550803373ffffffffffffffffffffffffffffffffffffffff167f920c9062915429f3e45c4d632a8ecd54f4dd8b4bf07e2b47998e4da6aa59d2e960405160405180910390a350565b6000809054906101000a900473ffffffffffffffffffffffffffffffffffffffff1673ffffffffffffffffffffffffffffffffffffffff163373ffffffffffffffffffffffffffffffffffffffff16141515610f8457600080fd5b600073ffffffffffffffffffffffffffffffffffffffff168173ffffffffffffffffffffffffffffffffffffffff1614151515610fc057600080fd5b806000806101000a81548173ffffffffffffffffffffffffffffffffffffffff021916908373ffffffffffffffffffffffffffffffffffffffff1602179055506000809054906101000a900473ffffffffffffffffffffffffffffffffffffffff1673ffffffffffffffffffffffffffffffffffffffff163373ffffffffffffffffffffffffffffffffffffffff167fe2c7d1c4da37855e682bde14f17826d185497973b73fba7554daa6da467058d960405160405180910390a350565b6000809054906101000a900473ffffffffffffffffffffffffffffffffffffffff1681565b6006809054906101000a900460ff1681565b600260009054906101000a900473ffffffffffffffffffffffffffffffffffffffff1673ffffffffffffffffffffffffffffffffffffffff163373ffffffffffffffffffffffffffffffffffffffff1614151561111157600080fd5b600060085414151561112257600080fd5b6005543414151561113257600080fd5b3460088190555034600260009054906101000a900473ffffffffffffffffffffffffffffffffffffffff1673ffffffffffffffffffffffffffffffffffffffff163373ffffffffffffffffffffffffffffffffffffffff167fc2e125b0aa80965f1e122407f75d7a9acee1e1e058cb680fbf7b98b838ee7adc60405160405180910390a4565b600660029054906101000a900460ff1681565b600660009054906101000a900460ff1681565b6000809054906101000a900473ffffffffffffffffffffffffffffffffffffffff1673ffffffffffffffffffffffffffffffffffffffff163373ffffffffffffffffffffffffffffffffffffffff1614151561123957600080fd5b6000811415151561124957600080fd5b600060085414151561125a57600080fd5b600060075414151561126b57600080fd5b6000600102600019166009546000191614151561128757600080fd5b84600160006101000a81548173ffffffffffffffffffffffffffffffffffffffff021916908373ffffffffffffffffffffffffffffffffffffffff16021790555083600260006101000a81548173ffffffffffffffffffffffffffffffffffffffff021916908373ffffffffffffffffffffffffffffffffffffffff16021790555082600360006101000a81548173ffffffffffffffffffffffffffffffffffffffff021916908373ffffffffffffffffffffffffffffffffffffffff16021790555081600481905550806005819055508560098160001916905550505050505050565b600260009054906101000a900473ffffffffffffffffffffffffffffffffffffffff1673ffffffffffffffffffffffffffffffffffffffff163373ffffffffffffffffffffffffffffffffffffffff161415156113c757600080fd5b6000600554141515156113d957600080fd5b6005546008541415156113eb57600080fd5b60016006806101000a81548160ff0219169083151502179055503373ffffffffffffffffffffffffffffffffffffffff167f4d731c11a8ebce0c9ac4f6ca7c3f5c91d81e08ec8221d53d41f18e6f75da842060405160405180910390a2565b60045481565b60055481565b6000809054906101000a900473ffffffffffffffffffffffffffffffffffffffff1673ffffffffffffffffffffffffffffffffffffffff163373ffffffffffffffffffffffffffffffffffffffff161415156114b157600080fd5b600073ffffffffffffffffffffffffffffffffffffffff168173ffffffffffffffffffffffffffffffffffffffff16141515156114ed57600080fd5b60006008541415156114fe57600080fd5b600060075414151561150f57600080fd5b80600360006101000a81548173ffffffffffffffffffffffffffffffffffffffff021916908373ffffffffffffffffffffffffffffffffffffffff160217905550600360009054906101000a900473ffffffffffffffffffffffffffffffffffffffff1673ffffffffffffffffffffffffffffffffffffffff163373ffffffffffffffffffffffffffffffffffffffff167ff092e8d37c93b4a76366a2bcf20057a146f1314579db0a2f72d69b5f81dd26a360405160405180910390a350565b600160009054906101000a900473ffffffffffffffffffffffffffffffffffffffff1673ffffffffffffffffffffffffffffffffffffffff163373ffffffffffffffffffffffffffffffffffffffff1614151561162b57600080fd5b600060075414151561163c57600080fd5b6005543414151561164c57600080fd5b3460078190555034600160009054906101000a900473ffffffffffffffffffffffffffffffffffffffff1673ffffffffffffffffffffffffffffffffffffffff163373ffffffffffffffffffffffffffffffffffffffff167ffccc26e16c2441d1be7f3ea3483e5bb3450f8e8ff501be84e42c3fce5cf012b460405160405180910390a4565b600260009054906101000a900473ffffffffffffffffffffffffffffffffffffffff1673ffffffffffffffffffffffffffffffffffffffff163373ffffffffffffffffffffffffffffffffffffffff1614151561172e57600080fd5b60006005541415151561174057600080fd5b60055460085414151561175257600080fd5b6001600660056101000a81548160ff0219169083151502179055503373ffffffffffffffffffffffffffffffffffffffff167f80c247dc7dd5ac4f568de4091afdb0ba0b1eff3e083cff3399329e73a99aa53d60405160405180910390a2565b600360009054906101000a900473ffffffffffffffffffffffffffffffffffffffff1681565b6000600660039054906101000a900460ff16806118015750600660009054906101000a900460ff165b151561180c57600080fd5b6000600754141580156118225750600060085414155b151561182d57600080fd5b60055460075414151561183f57600080fd5b60045460075460085401039050600360009054906101000a900473ffffffffffffffffffffffffffffffffffffffff1673ffffffffffffffffffffffffffffffffffffffff166108fc6004549081150290604051600060405180830381858888f193505050501580156118b6573d6000803e3d6000fd5b50600160009054906101000a900473ffffffffffffffffffffffffffffffffffffffff1673ffffffffffffffffffffffffffffffffffffffff166108fc829081150290604051600060405180830381858888f1935050505015801561191f573d6000803e3d6000fd5b50611928611e97565b80600160009054906101000a900473ffffffffffffffffffffffffffffffffffffffff1673ffffffffffffffffffffffffffffffffffffffff163373ffffffffffffffffffffffffffffffffffffffff167fd811988c9d3e99cb068e7e5fca50263f21d8e972be8bc21f63afd9563f2dcb3c60405160405180910390a450565b600360009054906101000a900473ffffffffffffffffffffffffffffffffffffffff1673ffffffffffffffffffffffffffffffffffffffff163373ffffffffffffffffffffffffffffffffffffffff16141515611a0457600080fd5b600060055414151515611a1657600080fd5b60055460085411151515611a2957600080fd5b60055460075411151515611a3c57600080fd5b6001600660026101000a81548160ff0219169083151502179055503373ffffffffffffffffffffffffffffffffffffffff167f84c78bdfa61e7edbfa5e00abd1bc88095198b68ba81f07386bcb0b606519ba7660405160405180910390a2565b600160009054906101000a900473ffffffffffffffffffffffffffffffffffffffff1673ffffffffffffffffffffffffffffffffffffffff163373ffffffffffffffffffffffffffffffffffffffff16141515611af857600080fd5b600060055414151515611b0a57600080fd5b600554600854141515611b1c57600080fd5b600554600754141515611b2e57600080fd5b6001600660016101000a81548160ff0219169083151502179055503373ffffffffffffffffffffffffffffffffffffffff167fe36942bcddbf0a4305cf536800ae250f7f6742ab407f1a46267581508cb2cbf760405160405180910390a2565b6000809054906101000a900473ffffffffffffffffffffffffffffffffffffffff1673ffffffffffffffffffffffffffffffffffffffff163373ffffffffffffffffffffffffffffffffffffffff16141515611be957600080fd5b600073ffffffffffffffffffffffffffffffffffffffff168173ffffffffffffffffffffffffffffffffffffffff1614151515611c2557600080fd5b6000600754141515611c3657600080fd5b80600160006101000a81548173ffffffffffffffffffffffffffffffffffffffff021916908373ffffffffffffffffffffffffffffffffffffffff160217905550600160009054906101000a900473ffffffffffffffffffffffffffffffffffffffff1673ffffffffffffffffffffffffffffffffffffffff163373ffffffffffffffffffffffffffffffffffffffff167f08e739ac8f509417104a96419f2a0a1b1fdf44f218a20a27070d8442e6bac6cf60405160405180910390a350565b600660039054906101000a900460ff1681565b600660019054906101000a900460ff1681565b600660059054906101000a900460ff1681565b6000809054906101000a900473ffffffffffffffffffffffffffffffffffffffff1673ffffffffffffffffffffffffffffffffffffffff163373ffffffffffffffffffffffffffffffffffffffff16141515611d8a57600080fd5b600073ffffffffffffffffffffffffffffffffffffffff168173ffffffffffffffffffffffffffffffffffffffff1614151515611dc657600080fd5b6000600854141515611dd757600080fd5b80600260006101000a81548173ffffffffffffffffffffffffffffffffffffffff021916908373ffffffffffffffffffffffffffffffffffffffff160217905550600260009054906101000a900473ffffffffffffffffffffffffffffffffffffffff1673ffffffffffffffffffffffffffffffffffffffff163373ffffffffffffffffffffffffffffffffffffffff167fbbbfeeeedc3d1f3b1e9fb658ef66250fe16ac1cda268d90c37d402e20c7ed52b60405160405180910390a350565b60008060009054906101000a900473ffffffffffffffffffffffffffffffffffffffff1690508073ffffffffffffffffffffffffffffffffffffffff1663b72c26386009546040518263ffffffff167c0100000000000000000000000000000000000000000000000000000000028152600401808260001916600019168152602001915050600060405180830381600087803b158015611f3657600080fd5b505af1158015611f4a573d6000803e3d6000fd5b5050505060006005819055506000600660006101000a81548160ff0219169083151502179055506000600660016101000a81548160ff0219169083151502179055506000600660026101000a81548160ff0219169083151502179055506000600660036101000a81548160ff0219169083151502179055506000600660046101000a81548160ff0219169083151502179055506000600660056101000a81548160ff02191690831515021790555060006006806101000a81548160ff02191690831515021790555060006007819055506000600881905550600060010260098160001916905550505600a165627a7a72305820ab6ba9d07847b9961208155da25954ca25ef423705c50a3d06a0e6aaf3bba5a40029a165627a7a72305820f71a79ef016acdce9cda03b1f6258ada1c81f1d8e5546ea36a09e532735714530029",
  "source": "pragma solidity ^0.4.24;\r\n\r\nimport \"./EscrowContract.sol\";\r\nimport \"./IEscrowContract.sol\";\r\n\r\ncontract DEX_MainContract {\r\n    \r\n    event SellOfferPlaced(address indexed caller, bytes32 indexed tradeHash);\r\n    event BuyOfferPlaced(address indexed caller, bytes32 indexed tradeHash);\r\n    event SellOfferCanceled(address indexed caller, bytes32 indexed tradeHash);\r\n    event BuyOfferCanceled(address indexed caller, bytes32 indexed tradeHash);\r\n    event EscrowContractCreatedForTrade(address indexed sellerAddress, address indexed buyerAddress, address addressOfNewEscrow, bytes32 indexed tradeHash);\r\n    event CompleteOffer(bytes32 indexed tradeHash);\r\n    event CompleteOfferFailed(bytes32 indexed tradeHash);\r\n    \r\n    struct SellerFiatAccount {\r\n        string accountNumber;\r\n        string bankName;\r\n    }\r\n    struct Offer {\r\n        string fiatCurrency;\r\n        SellerFiatAccount sellerFiatAccount;\r\n        uint offeredEthQuantity;\r\n        uint fiatQuantity;\r\n        address sellerAddress;\r\n        address buyerAddress;\r\n        address arbitratorAddress;\r\n        uint arbitratorFee;\r\n    }\r\n\r\n    address public owner;\r\n\r\n    mapping (bytes32 => Offer) public sellOffers;\r\n    mapping (bytes32 => Offer) public buyOffers;\r\n    \r\n    bytes32 [] public currentSellOffersTradeHash;\r\n    bytes32 [] public currentBuyOffersTradeHash;\r\n    address[] public escrowContracts;\r\n    address[] public freeEscrowContracts;\r\n    mapping (bytes32 => uint) private tradeHashIndexes;\r\n    mapping (bytes32 => address) public escrowAddressWithRespectToTradeHash;\r\n    \r\n    constructor () public {\r\n        owner = msg.sender;\r\n    }\r\n    \r\n    function placeSellOffer(string _fiatCurrency, string _sellerBankaccountNumber, string _sellerBankName, uint _offeredEthQuantity, uint _fiatQuantity, address _arbitratorAddress) external {\r\n        bytes32 tradeHash = keccak256(msg.sender, now, _offeredEthQuantity, _fiatQuantity, _fiatCurrency, \"Sell\");\r\n        if(sellOffers[tradeHash].sellerAddress != address(0)) revert();\r\n        Offer storage offer = sellOffers[tradeHash];\r\n        offer.fiatCurrency = _fiatCurrency;\r\n        offer.sellerFiatAccount.accountNumber = _sellerBankaccountNumber;\r\n        offer.sellerFiatAccount.bankName = _sellerBankName;\r\n        offer.offeredEthQuantity = _offeredEthQuantity;\r\n        offer.fiatQuantity = _fiatQuantity;\r\n        offer.sellerAddress = msg.sender;\r\n        offer.arbitratorAddress = _arbitratorAddress;\r\n        currentSellOffersTradeHash.push(tradeHash);\r\n        tradeHashIndexes[tradeHash] = currentSellOffersTradeHash.length - 1;\r\n        emit SellOfferPlaced(msg.sender, tradeHash);\r\n    }\r\n    function placeBuyOffer(string _fiatCurrency, uint _offeredEthQuantity, uint _fiatQuantity, address _arbitratorAddress) external {\r\n        bytes32 tradeHash = keccak256(msg.sender, now, _offeredEthQuantity, _fiatQuantity, _fiatCurrency, \"Buy\");\r\n        if(buyOffers[tradeHash].buyerAddress != address(0)) revert();\r\n        Offer storage offer = buyOffers[tradeHash];\r\n        offer.fiatCurrency = _fiatCurrency;\r\n        offer.offeredEthQuantity = _offeredEthQuantity;\r\n        offer.fiatQuantity = _fiatQuantity;\r\n        offer.buyerAddress = msg.sender;\r\n        offer.arbitratorAddress = _arbitratorAddress;\r\n        currentBuyOffersTradeHash.push(tradeHash);\r\n        tradeHashIndexes[tradeHash] = currentBuyOffersTradeHash.length - 1;\r\n        emit BuyOfferPlaced(msg.sender, tradeHash);\r\n    }\r\n    \r\n    function getSellOfferFromTradeHash(bytes32 _tradeHash) view external returns(string, uint, uint, address, address, address) {\r\n        return (\r\n            sellOffers[_tradeHash].fiatCurrency,\r\n            sellOffers[_tradeHash].offeredEthQuantity,\r\n            sellOffers[_tradeHash].fiatQuantity,\r\n            sellOffers[_tradeHash].sellerAddress,\r\n            sellOffers[_tradeHash].buyerAddress,\r\n            sellOffers[_tradeHash].arbitratorAddress);\r\n    }\r\n    function getSellOfferDetailsFromTradeHash(bytes32 _tradeHash) view external returns(uint, string, string) {\r\n        return (\r\n            sellOffers[_tradeHash].arbitratorFee,\r\n            sellOffers[_tradeHash].sellerFiatAccount.accountNumber,\r\n            sellOffers[_tradeHash].sellerFiatAccount.bankName);\r\n    }\r\n    function getBuyOfferFromTradeHash(bytes32 _tradeHash) view external returns(string, uint, uint, address, address, address) {\r\n        return (\r\n            buyOffers[_tradeHash].fiatCurrency,\r\n            buyOffers[_tradeHash].offeredEthQuantity,\r\n            buyOffers[_tradeHash].fiatQuantity,\r\n            buyOffers[_tradeHash].sellerAddress,\r\n            buyOffers[_tradeHash].buyerAddress,\r\n            buyOffers[_tradeHash].arbitratorAddress);\r\n    }\r\n    function getBuyOfferDetailsFromTradeHash(bytes32 _tradeHash) view external returns(uint, string, string) {\r\n        return (\r\n            buyOffers[_tradeHash].arbitratorFee,\r\n            buyOffers[_tradeHash].sellerFiatAccount.accountNumber,\r\n            buyOffers[_tradeHash].sellerFiatAccount.bankName);\r\n    }\r\n    \r\n    function getCurrentSellOffersCount() view external returns(uint) {\r\n        return currentSellOffersTradeHash.length;\r\n    }\r\n    function getCurrentBuyOffersCount() view external returns(uint) {\r\n        return currentBuyOffersTradeHash.length;\r\n    }\r\n \r\n    function cancelSellOffer(bytes32 _tradeHash) external {\r\n        require (sellOffers[_tradeHash].sellerAddress == msg.sender);\r\n        require (sellOffers[_tradeHash].buyerAddress == address(0));\r\n        delete sellOffers[_tradeHash];\r\n        deleteSellOfferTradeHash(_tradeHash);\r\n        emit SellOfferCanceled(msg.sender, _tradeHash);\r\n    }\r\n    function cancelBuyOffer(bytes32 _tradeHash) external {\r\n        require(buyOffers[_tradeHash].buyerAddress == msg.sender);\r\n        require(buyOffers[_tradeHash].sellerAddress == address(0));\r\n        delete buyOffers[_tradeHash];\r\n        deleteBuyOfferTradeHash(_tradeHash);\r\n        emit BuyOfferCanceled(msg.sender, _tradeHash);\r\n    }\r\n    \r\n    function takeSellOffer(bytes32 _tradeHash) external {\r\n        require(sellOffers[_tradeHash].sellerAddress != address(0));\r\n        require(sellOffers[_tradeHash].buyerAddress == address(0));\r\n        sellOffers[_tradeHash].buyerAddress = msg.sender;\r\n        createEscrowContract(_tradeHash, sellOffers[_tradeHash].sellerAddress, sellOffers[_tradeHash].buyerAddress, sellOffers[_tradeHash].arbitratorAddress, 0, sellOffers[_tradeHash].offeredEthQuantity);\r\n    }\r\n    function takeBuyOffer(bytes32 _tradeHash, string _sellerBankaccountNumber, string _sellerBankName) external {\r\n        require(buyOffers[_tradeHash].buyerAddress != address(0));\r\n        require(buyOffers[_tradeHash].sellerAddress == address(0));\r\n        buyOffers[_tradeHash].sellerAddress = msg.sender;\r\n        buyOffers[_tradeHash].sellerFiatAccount.accountNumber = _sellerBankaccountNumber;\r\n        buyOffers[_tradeHash].sellerFiatAccount.bankName = _sellerBankName;\r\n        createEscrowContract(_tradeHash, buyOffers[_tradeHash].sellerAddress, buyOffers[_tradeHash].buyerAddress, buyOffers[_tradeHash].arbitratorAddress, 0, buyOffers[_tradeHash].offeredEthQuantity);\r\n    }\r\n    \r\n    function completeOffer (bytes32 _tradeHash) external {\r\n        require(escrowAddressWithRespectToTradeHash[_tradeHash] == msg.sender);\r\n        if (buyOffers[_tradeHash].buyerAddress != address(0))\r\n        {\r\n            delete buyOffers[_tradeHash];\r\n            deleteBuyOfferTradeHash(_tradeHash);\r\n            freeEscrowContracts.push(escrowAddressWithRespectToTradeHash[_tradeHash]);\r\n            delete escrowAddressWithRespectToTradeHash[_tradeHash];\r\n            emit CompleteOffer(_tradeHash);\r\n        }\r\n        else if (sellOffers[_tradeHash].sellerAddress != address(0)) {\r\n            delete sellOffers[_tradeHash];\r\n            deleteSellOfferTradeHash(_tradeHash);\r\n            freeEscrowContracts.push(escrowAddressWithRespectToTradeHash[_tradeHash]);\r\n            delete escrowAddressWithRespectToTradeHash[_tradeHash];\r\n            emit CompleteOffer(_tradeHash);\r\n        }\r\n        else{\r\n            emit CompleteOfferFailed(_tradeHash);\r\n        }\r\n    }\r\n    \r\n    //private functions\r\n    function createEscrowContract (bytes32 _tradeHash, address _sellerAddress, address _buyerAddress, address _arbitratorAddress, uint _arbitratorFees, uint _offeredAmount) private {\r\n        address escrowAddress;\r\n        if(freeEscrowContracts.length > 0)\r\n        {\r\n            escrowAddress = freeEscrowContracts[freeEscrowContracts.length-1];\r\n            IEscrowContract escrowContractInterface = IEscrowContract(escrowAddress);\r\n            escrowContractInterface.setDataToStartEscrow(_tradeHash, _sellerAddress, _buyerAddress, _arbitratorAddress, _arbitratorFees, _offeredAmount);\r\n            freeEscrowContracts.length--;\r\n        }\r\n        else{\r\n            escrowAddress = new EscrowContract(_tradeHash, _sellerAddress, _buyerAddress, _arbitratorAddress, _arbitratorFees, _offeredAmount);\r\n            escrowContracts.push(escrowAddress);\r\n        }\r\n        escrowAddressWithRespectToTradeHash[_tradeHash] = escrowAddress;\r\n        emit EscrowContractCreatedForTrade(_sellerAddress, _buyerAddress, escrowAddress, _tradeHash);\r\n    }\r\n    function deleteSellOfferTradeHash(bytes32 _tradeHash) private {\r\n        bytes32 tradeHashAtLastIndex = currentSellOffersTradeHash[currentSellOffersTradeHash.length-1];\r\n        currentSellOffersTradeHash[tradeHashIndexes[_tradeHash]] = tradeHashAtLastIndex;\r\n        //delete currentSellOffersAddresses[tradeHashAtLastIndex].index;\r\n        delete tradeHashIndexes[_tradeHash];\r\n        currentSellOffersTradeHash.length--;\r\n    }\r\n    function deleteBuyOfferTradeHash(bytes32 _tradeHash) private {\r\n        bytes32 tradeHashAtLastIndex = currentBuyOffersTradeHash[currentBuyOffersTradeHash.length-1];\r\n        currentBuyOffersTradeHash[tradeHashIndexes[_tradeHash]] = tradeHashAtLastIndex;\r\n        delete tradeHashIndexes[_tradeHash];\r\n        currentBuyOffersTradeHash.length--;\r\n    }\r\n    \r\n}",
  "sourcePath": "E:\\DEX\\Smart Contracts\\FinalizedContracts\\TestContracts\\contracts\\DEX_MainContract.sol",
  "compiler": {
    "name": "solc",
    "version": "0.4.24+commit.e67f0147.Emscripten.clang"
  },
  "schemaVersion": "2.0.0",
  "updatedAt": "2018-06-04T08:49:39.439Z"
}