{
  "contractName": "EscrowContract",
  "abi": [
    {
      "constant": true,
      "inputs": [],
      "name": "sellerAmountDeposit",
      "outputs": [
        {
          "name": "",
          "type": "uint256"
        }
      ],
      "payable": false,
      "stateMutability": "view",
      "type": "function"
    },
    {
      "constant": true,
      "inputs": [],
      "name": "buyerSecurityDeposit",
      "outputs": [
        {
          "name": "",
          "type": "uint256"
        }
      ],
      "payable": false,
      "stateMutability": "view",
      "type": "function"
    },
    {
      "constant": true,
      "inputs": [],
      "name": "sellerAddress",
      "outputs": [
        {
          "name": "",
          "type": "address"
        }
      ],
      "payable": false,
      "stateMutability": "view",
      "type": "function"
    },
    {
      "constant": true,
      "inputs": [],
      "name": "buyerAddress",
      "outputs": [
        {
          "name": "",
          "type": "address"
        }
      ],
      "payable": false,
      "stateMutability": "view",
      "type": "function"
    },
    {
      "constant": true,
      "inputs": [],
      "name": "tradeHash",
      "outputs": [
        {
          "name": "",
          "type": "bytes32"
        }
      ],
      "payable": false,
      "stateMutability": "view",
      "type": "function"
    },
    {
      "constant": true,
      "inputs": [],
      "name": "sellerDisputeRaise",
      "outputs": [
        {
          "name": "",
          "type": "bool"
        }
      ],
      "payable": false,
      "stateMutability": "view",
      "type": "function"
    },
    {
      "constant": true,
      "inputs": [],
      "name": "owner",
      "outputs": [
        {
          "name": "",
          "type": "address"
        }
      ],
      "payable": false,
      "stateMutability": "view",
      "type": "function"
    },
    {
      "constant": true,
      "inputs": [],
      "name": "buyerSentFiatAmount",
      "outputs": [
        {
          "name": "",
          "type": "bool"
        }
      ],
      "payable": false,
      "stateMutability": "view",
      "type": "function"
    },
    {
      "constant": true,
      "inputs": [],
      "name": "isArbitratorAgreeingForBuyer",
      "outputs": [
        {
          "name": "",
          "type": "bool"
        }
      ],
      "payable": false,
      "stateMutability": "view",
      "type": "function"
    },
    {
      "constant": true,
      "inputs": [],
      "name": "isBuyerAgreeing",
      "outputs": [
        {
          "name": "",
          "type": "bool"
        }
      ],
      "payable": false,
      "stateMutability": "view",
      "type": "function"
    },
    {
      "constant": true,
      "inputs": [],
      "name": "arbitratorFees",
      "outputs": [
        {
          "name": "",
          "type": "uint256"
        }
      ],
      "payable": false,
      "stateMutability": "view",
      "type": "function"
    },
    {
      "constant": true,
      "inputs": [],
      "name": "offeredAmount",
      "outputs": [
        {
          "name": "",
          "type": "uint256"
        }
      ],
      "payable": false,
      "stateMutability": "view",
      "type": "function"
    },
    {
      "constant": true,
      "inputs": [],
      "name": "arbitratorAddress",
      "outputs": [
        {
          "name": "",
          "type": "address"
        }
      ],
      "payable": false,
      "stateMutability": "view",
      "type": "function"
    },
    {
      "constant": true,
      "inputs": [],
      "name": "isArbitratorAgreeingForSeller",
      "outputs": [
        {
          "name": "",
          "type": "bool"
        }
      ],
      "payable": false,
      "stateMutability": "view",
      "type": "function"
    },
    {
      "constant": true,
      "inputs": [],
      "name": "isSellerAgreeing",
      "outputs": [
        {
          "name": "",
          "type": "bool"
        }
      ],
      "payable": false,
      "stateMutability": "view",
      "type": "function"
    },
    {
      "constant": true,
      "inputs": [],
      "name": "buyerDisputeRaise",
      "outputs": [
        {
          "name": "",
          "type": "bool"
        }
      ],
      "payable": false,
      "stateMutability": "view",
      "type": "function"
    },
    {
      "inputs": [
        {
          "name": "_tradeHash",
          "type": "bytes32"
        },
        {
          "name": "_sellerAddress",
          "type": "address"
        },
        {
          "name": "_buyerAddress",
          "type": "address"
        },
        {
          "name": "_arbitratorAddress",
          "type": "address"
        },
        {
          "name": "_arbitratorFees",
          "type": "uint256"
        },
        {
          "name": "_offeredAmount",
          "type": "uint256"
        }
      ],
      "payable": false,
      "stateMutability": "nonpayable",
      "type": "constructor"
    },
    {
      "anonymous": false,
      "inputs": [
        {
          "indexed": true,
          "name": "caller",
          "type": "address"
        },
        {
          "indexed": true,
          "name": "newOwner",
          "type": "address"
        }
      ],
      "name": "UpdateOwner",
      "type": "event"
    },
    {
      "anonymous": false,
      "inputs": [
        {
          "indexed": true,
          "name": "caller",
          "type": "address"
        },
        {
          "indexed": true,
          "name": "newSeller",
          "type": "address"
        }
      ],
      "name": "UpdateSeller",
      "type": "event"
    },
    {
      "anonymous": false,
      "inputs": [
        {
          "indexed": true,
          "name": "caller",
          "type": "address"
        },
        {
          "indexed": true,
          "name": "newBuyer",
          "type": "address"
        }
      ],
      "name": "UpdateBuyer",
      "type": "event"
    },
    {
      "anonymous": false,
      "inputs": [
        {
          "indexed": true,
          "name": "caller",
          "type": "address"
        },
        {
          "indexed": true,
          "name": "newArbitrator",
          "type": "address"
        }
      ],
      "name": "UpdateArbitrator",
      "type": "event"
    },
    {
      "anonymous": false,
      "inputs": [
        {
          "indexed": true,
          "name": "caller",
          "type": "address"
        },
        {
          "indexed": true,
          "name": "arbitratorFees",
          "type": "uint256"
        }
      ],
      "name": "UpdateArbitratorFees",
      "type": "event"
    },
    {
      "anonymous": false,
      "inputs": [
        {
          "indexed": true,
          "name": "caller",
          "type": "address"
        },
        {
          "indexed": false,
          "name": "offeredAmount",
          "type": "uint256"
        }
      ],
      "name": "UpdateOfferedAmount",
      "type": "event"
    },
    {
      "anonymous": false,
      "inputs": [
        {
          "indexed": true,
          "name": "caller",
          "type": "address"
        },
        {
          "indexed": true,
          "name": "sellerAddress",
          "type": "address"
        },
        {
          "indexed": true,
          "name": "value",
          "type": "uint256"
        }
      ],
      "name": "RecievedFromSeller",
      "type": "event"
    },
    {
      "anonymous": false,
      "inputs": [
        {
          "indexed": true,
          "name": "caller",
          "type": "address"
        },
        {
          "indexed": true,
          "name": "buyerAddress",
          "type": "address"
        },
        {
          "indexed": true,
          "name": "value",
          "type": "uint256"
        }
      ],
      "name": "RecievedFromBuyer",
      "type": "event"
    },
    {
      "anonymous": false,
      "inputs": [
        {
          "indexed": true,
          "name": "caller",
          "type": "address"
        },
        {
          "indexed": true,
          "name": "sellerAddress",
          "type": "address"
        },
        {
          "indexed": true,
          "name": "amountToRelease",
          "type": "uint256"
        }
      ],
      "name": "ReleaseFundsForSeller",
      "type": "event"
    },
    {
      "anonymous": false,
      "inputs": [
        {
          "indexed": true,
          "name": "caller",
          "type": "address"
        },
        {
          "indexed": true,
          "name": "buyerAddress",
          "type": "address"
        },
        {
          "indexed": true,
          "name": "value",
          "type": "uint256"
        }
      ],
      "name": "ReleaseFundsForBuyer",
      "type": "event"
    },
    {
      "anonymous": false,
      "inputs": [
        {
          "indexed": true,
          "name": "caller",
          "type": "address"
        }
      ],
      "name": "RaiseBuyerSentFiatAmount",
      "type": "event"
    },
    {
      "anonymous": false,
      "inputs": [
        {
          "indexed": true,
          "name": "caller",
          "type": "address"
        }
      ],
      "name": "SignerForSeller",
      "type": "event"
    },
    {
      "anonymous": false,
      "inputs": [
        {
          "indexed": true,
          "name": "caller",
          "type": "address"
        }
      ],
      "name": "SignerForBuyer",
      "type": "event"
    },
    {
      "anonymous": false,
      "inputs": [
        {
          "indexed": true,
          "name": "caller",
          "type": "address"
        }
      ],
      "name": "SignerForArbitratorForBuyer",
      "type": "event"
    },
    {
      "anonymous": false,
      "inputs": [
        {
          "indexed": true,
          "name": "caller",
          "type": "address"
        }
      ],
      "name": "SignerForArbitratorForSeller",
      "type": "event"
    },
    {
      "anonymous": false,
      "inputs": [
        {
          "indexed": true,
          "name": "caller",
          "type": "address"
        }
      ],
      "name": "RaiseDisputeForSeller",
      "type": "event"
    },
    {
      "anonymous": false,
      "inputs": [
        {
          "indexed": true,
          "name": "caller",
          "type": "address"
        }
      ],
      "name": "RaiseDisputeForBuyer",
      "type": "event"
    },
    {
      "constant": false,
      "inputs": [
        {
          "name": "_tradeHash",
          "type": "bytes32"
        },
        {
          "name": "_sellerAddress",
          "type": "address"
        },
        {
          "name": "_buyerAddress",
          "type": "address"
        },
        {
          "name": "_arbitratorAddress",
          "type": "address"
        },
        {
          "name": "_arbitratorFees",
          "type": "uint256"
        },
        {
          "name": "_offeredAmount",
          "type": "uint256"
        }
      ],
      "name": "setDataToStartEscrow",
      "outputs": [],
      "payable": false,
      "stateMutability": "nonpayable",
      "type": "function"
    },
    {
      "constant": false,
      "inputs": [
        {
          "name": "_owner",
          "type": "address"
        }
      ],
      "name": "updateOwner",
      "outputs": [],
      "payable": false,
      "stateMutability": "nonpayable",
      "type": "function"
    },
    {
      "constant": false,
      "inputs": [
        {
          "name": "_sellerAddress",
          "type": "address"
        }
      ],
      "name": "updateSeller",
      "outputs": [],
      "payable": false,
      "stateMutability": "nonpayable",
      "type": "function"
    },
    {
      "constant": false,
      "inputs": [
        {
          "name": "_buyerAddress",
          "type": "address"
        }
      ],
      "name": "updateBuyer",
      "outputs": [],
      "payable": false,
      "stateMutability": "nonpayable",
      "type": "function"
    },
    {
      "constant": false,
      "inputs": [
        {
          "name": "_arbitratorAddress",
          "type": "address"
        }
      ],
      "name": "updateArbitrator",
      "outputs": [],
      "payable": false,
      "stateMutability": "nonpayable",
      "type": "function"
    },
    {
      "constant": false,
      "inputs": [
        {
          "name": "_arbitratorFees",
          "type": "uint256"
        }
      ],
      "name": "updateArbitratorFees",
      "outputs": [],
      "payable": false,
      "stateMutability": "nonpayable",
      "type": "function"
    },
    {
      "constant": false,
      "inputs": [
        {
          "name": "_offeredAmount",
          "type": "uint256"
        }
      ],
      "name": "updateOfferedAmount",
      "outputs": [],
      "payable": false,
      "stateMutability": "nonpayable",
      "type": "function"
    },
    {
      "constant": false,
      "inputs": [],
      "name": "depositForSeller",
      "outputs": [],
      "payable": true,
      "stateMutability": "payable",
      "type": "function"
    },
    {
      "constant": false,
      "inputs": [],
      "name": "depositForBuyer",
      "outputs": [],
      "payable": true,
      "stateMutability": "payable",
      "type": "function"
    },
    {
      "constant": false,
      "inputs": [],
      "name": "releaseFundsToSeller",
      "outputs": [],
      "payable": true,
      "stateMutability": "payable",
      "type": "function"
    },
    {
      "constant": false,
      "inputs": [],
      "name": "releaseFundsToBuyer",
      "outputs": [],
      "payable": true,
      "stateMutability": "payable",
      "type": "function"
    },
    {
      "constant": false,
      "inputs": [],
      "name": "raiseBuyerSentFiatAmount",
      "outputs": [],
      "payable": false,
      "stateMutability": "nonpayable",
      "type": "function"
    },
    {
      "constant": false,
      "inputs": [],
      "name": "signerForSeller",
      "outputs": [],
      "payable": false,
      "stateMutability": "nonpayable",
      "type": "function"
    },
    {
      "constant": false,
      "inputs": [],
      "name": "signerForBuyer",
      "outputs": [],
      "payable": false,
      "stateMutability": "nonpayable",
      "type": "function"
    },
    {
      "constant": false,
      "inputs": [],
      "name": "signerForArbitratorForBuyer",
      "outputs": [],
      "payable": false,
      "stateMutability": "nonpayable",
      "type": "function"
    },
    {
      "constant": false,
      "inputs": [],
      "name": "signerForArbitratorForSeller",
      "outputs": [],
      "payable": false,
      "stateMutability": "nonpayable",
      "type": "function"
    },
    {
      "constant": false,
      "inputs": [],
      "name": "raiseDisputeForSeller",
      "outputs": [],
      "payable": false,
      "stateMutability": "nonpayable",
      "type": "function"
    },
    {
      "constant": false,
      "inputs": [],
      "name": "raiseDisputeForBuyer",
      "outputs": [],
      "payable": false,
      "stateMutability": "nonpayable",
      "type": "function"
    }
  ],
  "bytecode": "0x608060405234801561001057600080fd5b5060405160c0806121f6833981018060405281019080805190602001909291908051906020019092919080519060200190929190805190602001909291908051906020019092919080519060200190929190505050336000806101000a81548173ffffffffffffffffffffffffffffffffffffffff021916908373ffffffffffffffffffffffffffffffffffffffff16021790555084600160006101000a81548173ffffffffffffffffffffffffffffffffffffffff021916908373ffffffffffffffffffffffffffffffffffffffff16021790555083600260006101000a81548173ffffffffffffffffffffffffffffffffffffffff021916908373ffffffffffffffffffffffffffffffffffffffff16021790555082600360006101000a81548173ffffffffffffffffffffffffffffffffffffffff021916908373ffffffffffffffffffffffffffffffffffffffff16021790555081600481905550806005819055508560098160001916905550505050505050612060806101966000396000f3006080604052600436106101ac576000357c0100000000000000000000000000000000000000000000000000000000900463ffffffff1680630844514b146101b15780630e8d5440146101c857806313576cab146101f35780633d9b2ae61461021e57806344834aca146102755780634afdc43c146102cc5780634db9afec146102e35780634eeffdc8146103165780635b4ecc311461034357806369a2ec4f146103725780636b668ee11461037c5780637295046714610393578063880cdc31146103c05780638da5cb5b146104035780638edff6981461045a578063957b6cb314610489578063983bf58714610493578063a6b829c7146104c2578063b2149530146104f1578063b4079caa14610596578063b5cff366146105ad578063b96cb80e146105d8578063bffc243d14610603578063ce18a04914610646578063d077f95214610650578063d60257be14610667578063d8797db0146106be578063d8df31d0146106c8578063da051c92146106df578063dbbdae63146106f6578063dc7d7d4414610739578063ed72dccc14610768578063f58d513d14610797578063f9df94f5146107c6575b600080fd5b3480156101bd57600080fd5b506101c6610809565b005b3480156101d457600080fd5b506101dd6108fd565b6040518082815260200191505060405180910390f35b3480156101ff57600080fd5b50610208610903565b6040518082815260200191505060405180910390f35b34801561022a57600080fd5b50610233610909565b604051808273ffffffffffffffffffffffffffffffffffffffff1673ffffffffffffffffffffffffffffffffffffffff16815260200191505060405180910390f35b34801561028157600080fd5b5061028a61092f565b604051808273ffffffffffffffffffffffffffffffffffffffff1673ffffffffffffffffffffffffffffffffffffffff16815260200191505060405180910390f35b3480156102d857600080fd5b506102e1610955565b005b3480156102ef57600080fd5b506102f8610a35565b60405180826000191660001916815260200191505060405180910390f35b34801561032257600080fd5b5061034160048036038101908080359060200190929190505050610a3b565b005b34801561034f57600080fd5b50610358610b78565b604051808215151515815260200191505060405180910390f35b61037a610b8b565b005b34801561038857600080fd5b50610391610d5b565b005b34801561039f57600080fd5b506103be60048036038101908080359060200190929190505050610e4d565b005b3480156103cc57600080fd5b50610401600480360381019080803573ffffffffffffffffffffffffffffffffffffffff169060200190929190505050610f29565b005b34801561040f57600080fd5b5061041861107e565b604051808273ffffffffffffffffffffffffffffffffffffffff1673ffffffffffffffffffffffffffffffffffffffff16815260200191505060405180910390f35b34801561046657600080fd5b5061046f6110a3565b604051808215151515815260200191505060405180910390f35b6104916110b5565b005b34801561049f57600080fd5b506104a86111b8565b604051808215151515815260200191505060405180910390f35b3480156104ce57600080fd5b506104d76111cb565b604051808215151515815260200191505060405180910390f35b3480156104fd57600080fd5b506105946004803603810190808035600019169060200190929190803573ffffffffffffffffffffffffffffffffffffffff169060200190929190803573ffffffffffffffffffffffffffffffffffffffff169060200190929190803573ffffffffffffffffffffffffffffffffffffffff16906020019092919080359060200190929190803590602001909291905050506111de565b005b3480156105a257600080fd5b506105ab61136b565b005b3480156105b957600080fd5b506105c261144a565b6040518082815260200191505060405180910390f35b3480156105e457600080fd5b506105ed611450565b6040518082815260200191505060405180910390f35b34801561060f57600080fd5b50610644600480360381019080803573ffffffffffffffffffffffffffffffffffffffff169060200190929190505050611456565b005b61064e6115cf565b005b34801561065c57600080fd5b506106656116d2565b005b34801561067357600080fd5b5061067c6117b2565b604051808273ffffffffffffffffffffffffffffffffffffffff1673ffffffffffffffffffffffffffffffffffffffff16815260200191505060405180910390f35b6106c66117d8565b005b3480156106d457600080fd5b506106dd6119a8565b005b3480156106eb57600080fd5b506106f4611a9c565b005b34801561070257600080fd5b50610737600480360381019080803573ffffffffffffffffffffffffffffffffffffffff169060200190929190505050611b8e565b005b34801561074557600080fd5b5061074e611cf6565b604051808215151515815260200191505060405180910390f35b34801561077457600080fd5b5061077d611d09565b604051808215151515815260200191505060405180910390f35b3480156107a357600080fd5b506107ac611d1c565b604051808215151515815260200191505060405180910390f35b3480156107d257600080fd5b50610807600480360381019080803573ffffffffffffffffffffffffffffffffffffffff169060200190929190505050611d2f565b005b600360009054906101000a900473ffffffffffffffffffffffffffffffffffffffff1673ffffffffffffffffffffffffffffffffffffffff163373ffffffffffffffffffffffffffffffffffffffff1614151561086557600080fd5b60006005541415151561087757600080fd5b6005546008541115151561088a57600080fd5b6005546007541115151561089d57600080fd5b6001600660036101000a81548160ff0219169083151502179055503373ffffffffffffffffffffffffffffffffffffffff167f0434567802dc4dfe4da4b28e840367553938999824811f11e12cfd492904e01060405160405180910390a2565b60075481565b60085481565b600160009054906101000a900473ffffffffffffffffffffffffffffffffffffffff1681565b600260009054906101000a900473ffffffffffffffffffffffffffffffffffffffff1681565b600160009054906101000a900473ffffffffffffffffffffffffffffffffffffffff1673ffffffffffffffffffffffffffffffffffffffff163373ffffffffffffffffffffffffffffffffffffffff161415156109b157600080fd5b6000600554141515156109c357600080fd5b6005546007541415156109d557600080fd5b6001600660046101000a81548160ff0219169083151502179055503373ffffffffffffffffffffffffffffffffffffffff167f2fbe376eb76a27a1b4a114620b10e43818b8bc87a47bd9bc825f7513fa7c77bd60405160405180910390a2565b60095481565b600360009054906101000a900473ffffffffffffffffffffffffffffffffffffffff1673ffffffffffffffffffffffffffffffffffffffff163373ffffffffffffffffffffffffffffffffffffffff161480610ae357506000809054906101000a900473ffffffffffffffffffffffffffffffffffffffff1673ffffffffffffffffffffffffffffffffffffffff163373ffffffffffffffffffffffffffffffffffffffff16145b1515610aee57600080fd5b60008114151515610afe57600080fd5b6000600854141515610b0f57600080fd5b6000600754141515610b2057600080fd5b806005819055503373ffffffffffffffffffffffffffffffffffffffff167f82a0d7f616308cccabf2144eb1cae4632e05f7337f943d21db7c77307b591380826040518082815260200191505060405180910390a250565b600660049054906101000a900460ff1681565b6000600660029054906101000a900460ff1680610bb45750600660019054906101000a900460ff165b1515610bbf57600080fd5b600060075414158015610bd55750600060085414155b1515610be057600080fd5b600554600854141515610bf257600080fd5b60045460075460085401039050600360009054906101000a900473ffffffffffffffffffffffffffffffffffffffff1673ffffffffffffffffffffffffffffffffffffffff166108fc6004549081150290604051600060405180830381858888f19350505050158015610c69573d6000803e3d6000fd5b50600260009054906101000a900473ffffffffffffffffffffffffffffffffffffffff1673ffffffffffffffffffffffffffffffffffffffff166108fc829081150290604051600060405180830381858888f19350505050158015610cd2573d6000803e3d6000fd5b50610cdb611e97565b80600260009054906101000a900473ffffffffffffffffffffffffffffffffffffffff1673ffffffffffffffffffffffffffffffffffffffff163373ffffffffffffffffffffffffffffffffffffffff167f03ef89100a0f08669251a1228deb678c3f58c16f2467552145e7861556e7792260405160405180910390a450565b600260009054906101000a900473ffffffffffffffffffffffffffffffffffffffff1673ffffffffffffffffffffffffffffffffffffffff163373ffffffffffffffffffffffffffffffffffffffff16141515610db757600080fd5b600060055414151515610dc957600080fd5b600554600854141515610ddb57600080fd5b600554600754141515610ded57600080fd5b6001600660006101000a81548160ff0219169083151502179055503373ffffffffffffffffffffffffffffffffffffffff167f2f12d1f875dff07cdcd667f9c30a2ca40566eefeb4a6ebacbe22f55df7c6ff8a60405160405180910390a2565b600360009054906101000a900473ffffffffffffffffffffffffffffffffffffffff1673ffffffffffffffffffffffffffffffffffffffff163373ffffffffffffffffffffffffffffffffffffffff16141515610ea957600080fd5b60008114151515610eb957600080fd5b6000600854141515610eca57600080fd5b6000600754141515610edb57600080fd5b80600481905550803373ffffffffffffffffffffffffffffffffffffffff167f920c9062915429f3e45c4d632a8ecd54f4dd8b4bf07e2b47998e4da6aa59d2e960405160405180910390a350565b6000809054906101000a900473ffffffffffffffffffffffffffffffffffffffff1673ffffffffffffffffffffffffffffffffffffffff163373ffffffffffffffffffffffffffffffffffffffff16141515610f8457600080fd5b600073ffffffffffffffffffffffffffffffffffffffff168173ffffffffffffffffffffffffffffffffffffffff1614151515610fc057600080fd5b806000806101000a81548173ffffffffffffffffffffffffffffffffffffffff021916908373ffffffffffffffffffffffffffffffffffffffff1602179055506000809054906101000a900473ffffffffffffffffffffffffffffffffffffffff1673ffffffffffffffffffffffffffffffffffffffff163373ffffffffffffffffffffffffffffffffffffffff167fe2c7d1c4da37855e682bde14f17826d185497973b73fba7554daa6da467058d960405160405180910390a350565b6000809054906101000a900473ffffffffffffffffffffffffffffffffffffffff1681565b6006809054906101000a900460ff1681565b600260009054906101000a900473ffffffffffffffffffffffffffffffffffffffff1673ffffffffffffffffffffffffffffffffffffffff163373ffffffffffffffffffffffffffffffffffffffff1614151561111157600080fd5b600060085414151561112257600080fd5b6005543414151561113257600080fd5b3460088190555034600260009054906101000a900473ffffffffffffffffffffffffffffffffffffffff1673ffffffffffffffffffffffffffffffffffffffff163373ffffffffffffffffffffffffffffffffffffffff167fc2e125b0aa80965f1e122407f75d7a9acee1e1e058cb680fbf7b98b838ee7adc60405160405180910390a4565b600660029054906101000a900460ff1681565b600660009054906101000a900460ff1681565b6000809054906101000a900473ffffffffffffffffffffffffffffffffffffffff1673ffffffffffffffffffffffffffffffffffffffff163373ffffffffffffffffffffffffffffffffffffffff1614151561123957600080fd5b6000811415151561124957600080fd5b600060085414151561125a57600080fd5b600060075414151561126b57600080fd5b6000600102600019166009546000191614151561128757600080fd5b84600160006101000a81548173ffffffffffffffffffffffffffffffffffffffff021916908373ffffffffffffffffffffffffffffffffffffffff16021790555083600260006101000a81548173ffffffffffffffffffffffffffffffffffffffff021916908373ffffffffffffffffffffffffffffffffffffffff16021790555082600360006101000a81548173ffffffffffffffffffffffffffffffffffffffff021916908373ffffffffffffffffffffffffffffffffffffffff16021790555081600481905550806005819055508560098160001916905550505050505050565b600260009054906101000a900473ffffffffffffffffffffffffffffffffffffffff1673ffffffffffffffffffffffffffffffffffffffff163373ffffffffffffffffffffffffffffffffffffffff161415156113c757600080fd5b6000600554141515156113d957600080fd5b6005546008541415156113eb57600080fd5b60016006806101000a81548160ff0219169083151502179055503373ffffffffffffffffffffffffffffffffffffffff167f4d731c11a8ebce0c9ac4f6ca7c3f5c91d81e08ec8221d53d41f18e6f75da842060405160405180910390a2565b60045481565b60055481565b6000809054906101000a900473ffffffffffffffffffffffffffffffffffffffff1673ffffffffffffffffffffffffffffffffffffffff163373ffffffffffffffffffffffffffffffffffffffff161415156114b157600080fd5b600073ffffffffffffffffffffffffffffffffffffffff168173ffffffffffffffffffffffffffffffffffffffff16141515156114ed57600080fd5b60006008541415156114fe57600080fd5b600060075414151561150f57600080fd5b80600360006101000a81548173ffffffffffffffffffffffffffffffffffffffff021916908373ffffffffffffffffffffffffffffffffffffffff160217905550600360009054906101000a900473ffffffffffffffffffffffffffffffffffffffff1673ffffffffffffffffffffffffffffffffffffffff163373ffffffffffffffffffffffffffffffffffffffff167ff092e8d37c93b4a76366a2bcf20057a146f1314579db0a2f72d69b5f81dd26a360405160405180910390a350565b600160009054906101000a900473ffffffffffffffffffffffffffffffffffffffff1673ffffffffffffffffffffffffffffffffffffffff163373ffffffffffffffffffffffffffffffffffffffff1614151561162b57600080fd5b600060075414151561163c57600080fd5b6005543414151561164c57600080fd5b3460078190555034600160009054906101000a900473ffffffffffffffffffffffffffffffffffffffff1673ffffffffffffffffffffffffffffffffffffffff163373ffffffffffffffffffffffffffffffffffffffff167ffccc26e16c2441d1be7f3ea3483e5bb3450f8e8ff501be84e42c3fce5cf012b460405160405180910390a4565b600260009054906101000a900473ffffffffffffffffffffffffffffffffffffffff1673ffffffffffffffffffffffffffffffffffffffff163373ffffffffffffffffffffffffffffffffffffffff1614151561172e57600080fd5b60006005541415151561174057600080fd5b60055460085414151561175257600080fd5b6001600660056101000a81548160ff0219169083151502179055503373ffffffffffffffffffffffffffffffffffffffff167f80c247dc7dd5ac4f568de4091afdb0ba0b1eff3e083cff3399329e73a99aa53d60405160405180910390a2565b600360009054906101000a900473ffffffffffffffffffffffffffffffffffffffff1681565b6000600660039054906101000a900460ff16806118015750600660009054906101000a900460ff165b151561180c57600080fd5b6000600754141580156118225750600060085414155b151561182d57600080fd5b60055460075414151561183f57600080fd5b60045460075460085401039050600360009054906101000a900473ffffffffffffffffffffffffffffffffffffffff1673ffffffffffffffffffffffffffffffffffffffff166108fc6004549081150290604051600060405180830381858888f193505050501580156118b6573d6000803e3d6000fd5b50600160009054906101000a900473ffffffffffffffffffffffffffffffffffffffff1673ffffffffffffffffffffffffffffffffffffffff166108fc829081150290604051600060405180830381858888f1935050505015801561191f573d6000803e3d6000fd5b50611928611e97565b80600160009054906101000a900473ffffffffffffffffffffffffffffffffffffffff1673ffffffffffffffffffffffffffffffffffffffff163373ffffffffffffffffffffffffffffffffffffffff167fd811988c9d3e99cb068e7e5fca50263f21d8e972be8bc21f63afd9563f2dcb3c60405160405180910390a450565b600360009054906101000a900473ffffffffffffffffffffffffffffffffffffffff1673ffffffffffffffffffffffffffffffffffffffff163373ffffffffffffffffffffffffffffffffffffffff16141515611a0457600080fd5b600060055414151515611a1657600080fd5b60055460085411151515611a2957600080fd5b60055460075411151515611a3c57600080fd5b6001600660026101000a81548160ff0219169083151502179055503373ffffffffffffffffffffffffffffffffffffffff167f84c78bdfa61e7edbfa5e00abd1bc88095198b68ba81f07386bcb0b606519ba7660405160405180910390a2565b600160009054906101000a900473ffffffffffffffffffffffffffffffffffffffff1673ffffffffffffffffffffffffffffffffffffffff163373ffffffffffffffffffffffffffffffffffffffff16141515611af857600080fd5b600060055414151515611b0a57600080fd5b600554600854141515611b1c57600080fd5b600554600754141515611b2e57600080fd5b6001600660016101000a81548160ff0219169083151502179055503373ffffffffffffffffffffffffffffffffffffffff167fe36942bcddbf0a4305cf536800ae250f7f6742ab407f1a46267581508cb2cbf760405160405180910390a2565b6000809054906101000a900473ffffffffffffffffffffffffffffffffffffffff1673ffffffffffffffffffffffffffffffffffffffff163373ffffffffffffffffffffffffffffffffffffffff16141515611be957600080fd5b600073ffffffffffffffffffffffffffffffffffffffff168173ffffffffffffffffffffffffffffffffffffffff1614151515611c2557600080fd5b6000600754141515611c3657600080fd5b80600160006101000a81548173ffffffffffffffffffffffffffffffffffffffff021916908373ffffffffffffffffffffffffffffffffffffffff160217905550600160009054906101000a900473ffffffffffffffffffffffffffffffffffffffff1673ffffffffffffffffffffffffffffffffffffffff163373ffffffffffffffffffffffffffffffffffffffff167f08e739ac8f509417104a96419f2a0a1b1fdf44f218a20a27070d8442e6bac6cf60405160405180910390a350565b600660039054906101000a900460ff1681565b600660019054906101000a900460ff1681565b600660059054906101000a900460ff1681565b6000809054906101000a900473ffffffffffffffffffffffffffffffffffffffff1673ffffffffffffffffffffffffffffffffffffffff163373ffffffffffffffffffffffffffffffffffffffff16141515611d8a57600080fd5b600073ffffffffffffffffffffffffffffffffffffffff168173ffffffffffffffffffffffffffffffffffffffff1614151515611dc657600080fd5b6000600854141515611dd757600080fd5b80600260006101000a81548173ffffffffffffffffffffffffffffffffffffffff021916908373ffffffffffffffffffffffffffffffffffffffff160217905550600260009054906101000a900473ffffffffffffffffffffffffffffffffffffffff1673ffffffffffffffffffffffffffffffffffffffff163373ffffffffffffffffffffffffffffffffffffffff167fbbbfeeeedc3d1f3b1e9fb658ef66250fe16ac1cda268d90c37d402e20c7ed52b60405160405180910390a350565b60008060009054906101000a900473ffffffffffffffffffffffffffffffffffffffff1690508073ffffffffffffffffffffffffffffffffffffffff1663b72c26386009546040518263ffffffff167c0100000000000000000000000000000000000000000000000000000000028152600401808260001916600019168152602001915050600060405180830381600087803b158015611f3657600080fd5b505af1158015611f4a573d6000803e3d6000fd5b5050505060006005819055506000600660006101000a81548160ff0219169083151502179055506000600660016101000a81548160ff0219169083151502179055506000600660026101000a81548160ff0219169083151502179055506000600660036101000a81548160ff0219169083151502179055506000600660046101000a81548160ff0219169083151502179055506000600660056101000a81548160ff02191690831515021790555060006006806101000a81548160ff02191690831515021790555060006007819055506000600881905550600060010260098160001916905550505600a165627a7a72305820ab6ba9d07847b9961208155da25954ca25ef423705c50a3d06a0e6aaf3bba5a40029",
  "source": "pragma solidity ^0.4.24;\r\n\r\nimport \"./IDEX_MainContract.sol\";\r\n\r\ncontract EscrowContract {\r\n\r\n    event UpdateOwner(address indexed caller, address indexed newOwner);\r\n    event UpdateSeller(address indexed caller, address indexed newSeller);\r\n    event UpdateBuyer(address indexed caller, address indexed newBuyer);\r\n    event UpdateArbitrator(address indexed caller, address indexed newArbitrator);\r\n    event UpdateArbitratorFees(address indexed caller, uint indexed arbitratorFees);\r\n    event UpdateOfferedAmount(address indexed caller, uint offeredAmount);\r\n    \r\n    event RecievedFromSeller(address indexed caller, address indexed sellerAddress, uint indexed value);\r\n    event RecievedFromBuyer(address indexed caller, address indexed buyerAddress, uint indexed value);\r\n    \r\n    event ReleaseFundsForSeller(address indexed caller, address indexed sellerAddress, uint indexed amountToRelease);\r\n    event ReleaseFundsForBuyer(address indexed caller, address indexed buyerAddress, uint indexed value);\r\n    \r\n    event RaiseBuyerSentFiatAmount(address indexed caller);\r\n    event SignerForSeller(address indexed caller);\r\n    event SignerForBuyer(address indexed caller);\r\n    event SignerForArbitratorForBuyer(address indexed caller);\r\n    event SignerForArbitratorForSeller(address indexed caller);\r\n    event RaiseDisputeForSeller(address indexed caller);\r\n    event RaiseDisputeForBuyer(address indexed caller);\r\n    \r\n    address public owner;   //owner of the contract. In our case the main contract will be the owner\r\n    address public sellerAddress;   //seller address set by the owner for trade\r\n    address public buyerAddress;    //buyer address set by the owner for trade\r\n    address public arbitratorAddress;   //arbitratoe address\r\n    uint public arbitratorFees; //arbitrator fees will only be set by the arbitrator or default fees\r\n    uint public offeredAmount;  //the amount on which the trade is done. Set by the intializer of the trade.\r\n    \r\n    bool public isBuyerAgreeing;    //Raising this will intend that \"Buyer admits that he has done something wrong and he is letting the seller take all the ETH\"\r\n    bool public isSellerAgreeing;   //Raising this will intend that \"Seller admits that he has received the fiat amount and letting all the ETH go to Buyer\"\r\n    bool public isArbitratorAgreeingForBuyer;   //In case of dispute, arbitrator is agreeing for buyer\r\n    bool public isArbitratorAgreeingForSeller;  //In case of dispute, arbitrator is agreeing for seller\r\n    bool public sellerDisputeRaise; //check if the seller raised the dispute\r\n    bool public buyerDisputeRaise;  //check if the buyer raised the dispute\r\n    bool public buyerSentFiatAmount;    //check if the buyer has sent the fiat amount to the seller\r\n    \r\n    uint public sellerAmountDeposit;    //current deposited amount by seller\r\n    uint public buyerSecurityDeposit;   //current deposited amount by buyer\r\n    \r\n    bytes32 public tradeHash;\r\n    \r\n\r\n    /// @dev Contract constructor sets initial owners and required number of confirmations.\r\n    //Use 0x0000000000000000000000000000000000000000 to set null address.\r\n    //Use 0 to set zero arbitrator fees and offered amount\r\n    constructor (bytes32 _tradeHash, address _sellerAddress, address _buyerAddress, address _arbitratorAddress, uint _arbitratorFees, uint _offeredAmount) public {\r\n        owner = msg.sender;\r\n        sellerAddress = _sellerAddress;\r\n        buyerAddress = _buyerAddress;\r\n        arbitratorAddress = _arbitratorAddress;\r\n        arbitratorFees = _arbitratorFees;\r\n        offeredAmount = _offeredAmount;\r\n        tradeHash = _tradeHash;\r\n    }\r\n    function setDataToStartEscrow (bytes32 _tradeHash, address _sellerAddress, address _buyerAddress, address _arbitratorAddress, uint _arbitratorFees, uint _offeredAmount) external {\r\n        require(msg.sender==owner);\r\n        require(_offeredAmount!=0);\r\n        require(buyerSecurityDeposit==0);\r\n        require(sellerAmountDeposit==0);\r\n        require(tradeHash==bytes32(0));\r\n        sellerAddress = _sellerAddress;\r\n        buyerAddress = _buyerAddress;\r\n        arbitratorAddress = _arbitratorAddress;\r\n        arbitratorFees = _arbitratorFees;\r\n        offeredAmount = _offeredAmount;\r\n        tradeHash = _tradeHash;\r\n    }\r\n    \r\n    //update functions for the owner, called only when the trade is not in progress\r\n    function updateOwner(address _owner) external {\r\n        require(msg.sender==owner);\r\n        require(_owner!=address(0));\r\n        \r\n        owner = _owner;\r\n        emit UpdateOwner(msg.sender, owner);\r\n    }\r\n    function updateSeller(address _sellerAddress) external {\r\n        require(msg.sender==owner);\r\n        require(_sellerAddress!=address(0));\r\n        require(sellerAmountDeposit==0);\r\n        sellerAddress = _sellerAddress;\r\n        emit UpdateSeller(msg.sender, sellerAddress);\r\n    }\r\n    function updateBuyer(address _buyerAddress) external {\r\n        require(msg.sender==owner);\r\n        require(_buyerAddress!=address(0));\r\n        require(buyerSecurityDeposit==0);\r\n        buyerAddress = _buyerAddress;\r\n        emit UpdateBuyer(msg.sender, buyerAddress);\r\n    }\r\n    function updateArbitrator(address _arbitratorAddress) external {\r\n        require(msg.sender==owner);\r\n        require(_arbitratorAddress!=address(0));\r\n        require(buyerSecurityDeposit==0);\r\n        require(sellerAmountDeposit==0);\r\n        arbitratorAddress = _arbitratorAddress;\r\n        emit UpdateArbitrator(msg.sender, arbitratorAddress);\r\n    }\r\n    //trade fees and trade amount update functions. Called at the start of a trade only by arbitrator\r\n    function updateArbitratorFees(uint _arbitratorFees) external {\r\n        require(msg.sender==arbitratorAddress);\r\n        require(_arbitratorFees!=0);\r\n        require(buyerSecurityDeposit==0);\r\n        require(sellerAmountDeposit==0);\r\n        arbitratorFees = _arbitratorFees;\r\n        emit UpdateArbitratorFees(msg.sender, _arbitratorFees);\r\n    }\r\n    function updateOfferedAmount(uint _offeredAmount) external {\r\n        require(msg.sender==arbitratorAddress || msg.sender==owner);\r\n        require(_offeredAmount!=0);\r\n        require(buyerSecurityDeposit==0);\r\n        require(sellerAmountDeposit==0);\r\n        offeredAmount = _offeredAmount;\r\n        emit UpdateOfferedAmount(msg.sender, _offeredAmount);\r\n    }\r\n\r\n    //call these functions with the trade amount to deposit to escrow\r\n    function depositForSeller() external payable {\r\n        require(msg.sender==sellerAddress);\r\n        require(sellerAmountDeposit==0);\r\n        require(msg.value==offeredAmount);\r\n        sellerAmountDeposit = msg.value;\r\n        emit RecievedFromSeller(msg.sender, sellerAddress, msg.value);\r\n    }\r\n    function depositForBuyer() external payable {\r\n        require(msg.sender==buyerAddress);\r\n        require(buyerSecurityDeposit==0);\r\n        require(msg.value==offeredAmount);\r\n        buyerSecurityDeposit = msg.value;\r\n        emit RecievedFromBuyer(msg.sender, buyerAddress, msg.value);\r\n    }\r\n    \r\n    //call these functions without any value to release funds either to buyer or seller\r\n    function releaseFundsToSeller() external payable {\r\n        require(isArbitratorAgreeingForSeller || isBuyerAgreeing);\r\n        require(sellerAmountDeposit!=0 && buyerSecurityDeposit!=0);\r\n        require(sellerAmountDeposit==offeredAmount);\r\n        uint amountToRelease = buyerSecurityDeposit + sellerAmountDeposit - arbitratorFees;\r\n        arbitratorAddress.transfer(arbitratorFees);\r\n        sellerAddress.transfer(amountToRelease);\r\n        clearDataInContract();\r\n        emit ReleaseFundsForSeller(msg.sender, sellerAddress, amountToRelease);\r\n    }\r\n    function releaseFundsToBuyer() external payable {\r\n        require(isArbitratorAgreeingForBuyer || isSellerAgreeing);\r\n        require(sellerAmountDeposit!=0 && buyerSecurityDeposit!=0);\r\n        require(buyerSecurityDeposit==offeredAmount);\r\n        uint amountToRelease = buyerSecurityDeposit + sellerAmountDeposit - arbitratorFees;\r\n        arbitratorAddress.transfer(arbitratorFees);\r\n        buyerAddress.transfer(amountToRelease);\r\n        clearDataInContract();\r\n        emit ReleaseFundsForBuyer(msg.sender, buyerAddress, amountToRelease);\r\n    }\r\n    \r\n    function raiseBuyerSentFiatAmount() external {\r\n        require(msg.sender==buyerAddress);\r\n        require(offeredAmount!=0);\r\n        require(buyerSecurityDeposit==offeredAmount);\r\n        buyerSentFiatAmount = true;\r\n        emit RaiseBuyerSentFiatAmount(msg.sender);\r\n    }\r\n    //voting functions for buyer seller and arbitrator\r\n    function signerForSeller() external {\r\n        require(msg.sender==sellerAddress);\r\n        require(offeredAmount!=0);\r\n        require(buyerSecurityDeposit==offeredAmount);\r\n        require(sellerAmountDeposit==offeredAmount);\r\n        isSellerAgreeing = true;\r\n        emit SignerForSeller(msg.sender);\r\n    }\r\n    function signerForBuyer() external {\r\n        require(msg.sender==buyerAddress);\r\n        require(offeredAmount!=0);\r\n        require(buyerSecurityDeposit==offeredAmount);\r\n        require(sellerAmountDeposit==offeredAmount);\r\n        isBuyerAgreeing = true;\r\n        emit SignerForBuyer(msg.sender);\r\n    }\r\n    function signerForArbitratorForBuyer() external {\r\n        require(msg.sender==arbitratorAddress);\r\n        require(offeredAmount!=0);\r\n        require(buyerSecurityDeposit<=offeredAmount);\r\n        require(sellerAmountDeposit<=offeredAmount);\r\n        isArbitratorAgreeingForBuyer = true;\r\n        emit SignerForArbitratorForBuyer(msg.sender);\r\n    }\r\n    function signerForArbitratorForSeller() external {\r\n        require(msg.sender==arbitratorAddress);\r\n        require(offeredAmount!=0);\r\n        require(buyerSecurityDeposit<=offeredAmount);\r\n        require(sellerAmountDeposit<=offeredAmount);\r\n        isArbitratorAgreeingForSeller = true;\r\n        emit SignerForArbitratorForSeller(msg.sender);\r\n    }\r\n    function raiseDisputeForSeller() external {\r\n        require(msg.sender==sellerAddress);\r\n        require(offeredAmount!=0);\r\n        require(sellerAmountDeposit==offeredAmount);\r\n        sellerDisputeRaise = true;\r\n        emit RaiseDisputeForSeller(msg.sender);\r\n    }\r\n    function raiseDisputeForBuyer() external {\r\n        require(msg.sender==buyerAddress);\r\n        require(offeredAmount!=0);\r\n        require(buyerSecurityDeposit==offeredAmount);\r\n        buyerDisputeRaise = true;\r\n        emit RaiseDisputeForBuyer(msg.sender);\r\n    }\r\n    \r\n    \r\n    //private functions\r\n    function clearDataInContract() private {\r\n        IDEX_MainContract mainContractInterface = IDEX_MainContract(owner);\r\n        mainContractInterface.completeOffer(tradeHash);\r\n        offeredAmount = 0;\r\n        isBuyerAgreeing = false;\r\n        isSellerAgreeing = false;\r\n        isArbitratorAgreeingForBuyer = false;\r\n        isArbitratorAgreeingForSeller = false;\r\n        sellerDisputeRaise = false;\r\n        buyerDisputeRaise = false;\r\n        buyerSentFiatAmount = false;\r\n        sellerAmountDeposit = 0;\r\n        buyerSecurityDeposit = 0;\r\n        tradeHash = bytes32(0);\r\n    }\r\n}",
  "sourcePath": "E:\\DEX\\Smart Contracts\\FinalizedContracts\\TestContracts\\contracts\\EscrowContract.sol",
  "compiler": {
    "name": "solc",
    "version": "0.4.24+commit.e67f0147.Emscripten.clang"
  },
  "schemaVersion": "2.0.0",
  "updatedAt": "2018-06-04T07:40:51.117Z"
}